:10000000D2C10000EDC10000EBC10000E9C1000059
:10001000E7C10000E5C10000E3C10000E1C100004C
:10002000DFC10000DDC100000C94E31B0C94AF1C89
:100030000C945E17D5C10000D3C10000D1C10000EF
:10004000CFC10000CDC10000CBC10000C9C100007C
:10005000C7C100000C94D517C3C10000C1C1000086
:10006000BFC10000BDC10000BBC10000B9C100009C
:10007000B7C10000B5C10000B3C10000B1C10000AC
:10008000AFC10000ADC10000ABC10000A9C10000BC
:10009000A7C10000A5C10000A3C10000A1C10000CC
:1000A0009FC100009DC100009BC100002B001428CF
:1000B0001A000800150017001C0018000C001200A0
:1000C00013282A00292104241621072209000A00E6
:1000D0000B000D000E220F2133242800E1001D002B
:1000E0001B00060019000500110010003600370043
:1000F00038004C00000000000000000000002C410F
:10010000225200000000000000000000000000007B
:10011000240025002600000030002E0224023602B2
:10012000220200000000270021002200230000001E
:1001300027021F0221023702000000000000000019
:100140001E001F002000000030022E002502320099
:100150002114000000000000000000000000010069
:1001600023520000000000000000000000002002F8
:10017000350064022D022F00000000000000000086
:1001800000000000000023021E0234002D002602A1
:1001900000005000510052004F000000000000001D
:1001A0003402640032022F0200004A004E004B006D
:1001B0004D0000000000000000000000000023527D
:1001C00001000000000000000000000000003A00F4
:1001D0003B003C003D003E003F004000410042002B
:1001E0004300000000000000AA00A900AE00440087
:1001F0004500AE00AA00A90000000000007C390004
:1002000000000000000000000000000000000000EE
:100210003900007C00000000000000000000010028
:100220000100000000000000000000002003330077
:1002300038002D004B006500790020004B00650060
:10024000790062006F0061007200640000000A0320
:10025000780030003400650000000403090409023E
:100260003B00020100A0FA090400000103010100A3
:100270000921110100012244000705810308000142
:1002800009040100010300000009211101000122FD
:10029000B6000705820320000112010002000000E1
:1002A00008EDFEE00400010102000105010902A1C0
:1002B0000185020901A10005091901290815002578
:1002C0000195087501810205010930093115812563
:1002D0007F95027508810609381581257F9501757E
:1002E000088106050C0A38021581257F95017508DD
:1002F0008106C0C005010980A101850319012AB743
:1003000000150126B700950175108100C0050C0984
:1003100001A101850419012AA002150126A0029558
:100320000175108100C005010906A10185060507B8
:1003300019E029E7150025019508750181020507D7
:10034000190029EF1500250195F0750181020508B6
:100350001901290595057501910295017503910112
:10036000C005010906A101050719E029E7150025C7
:10037000019508750181029501750881010507192C
:100380000029FF150026FF00950675088100050865
:1003900019012905150025019505750191029501A1
:1003A00075039101C00011241FBECFEFDAE0DEBF5C
:1003B000CDBF11E0A0E0B1E0ECEEFEE302C005909D
:1003C0000D92AA32B107D9F722E0AAE2B1E001C04A
:1003D0001D92A534B207E1F70E94C1100C94ED1EE6
:1003E0000FCE81E00895982F962B943018F081E07D
:1003F00090E008954C30D8F750E09CE0699F400DA4
:10040000511D112490E3899F400D511D1124FA01C3
:10041000EE0FFF1FE455FF4F25913591C901089557
:10042000E2CF089581E0089581E00895FBCF08951B
:1004300081E00895D6CF089508950895FDCF0895D9
:1004400008950895A6E0B0E0E8E2F2E00C94691E99
:1004500049835A839E833091310189819A81311178
:1004600017C03E81303089F0203079F052D5182FF6
:10047000682F89819A812CD569817A81812F0E9488
:10048000DF0D2696E3E00C94851E33D5182FF4CFAC
:1004900040D569817A81F3CFFC01262F40815181BB
:1004A0006281738184819581CDCFCF93DF93EC01FD
:1004B00061E0F2DFBE01B8DF803029F061E0CE01FB
:1004C000EBDFBE01B3DFDF91CF9108950F931F9350
:1004D000CF93DF93EC0160E0DFDF8C01BE01ADDF85
:1004E000BE01C801ABDFDF91CF911F910F9108953D
:1004F0000F931F93CF93DF93EC0161E0CDDF8C016D
:10050000BE0196DF803039F1BE01C80193DF803033
:1005100011F1BE01C8010E94A3148030E1F0BE01B8
:10052000C8010E9416118030B1F0BE01C8010E94BE
:10053000EF10803081F0BE01C8010E94E20E8030D1
:1005400051F0BE01C8010E94F40E803021F0BE01BE
:10055000C8010E940E0FDF91CF911F910F91089556
:1005600021E030E002C0220F331F8A95E2F7C90173
:10057000EAC3CF93C82F81E090E00C2E02C0880F11
:10058000991F0A94E2F70E949E0B8C2FE9DFCF910E
:10059000089581E0089581E00895FBCF0895CF93F9
:1005A000C82F7FD38C2FF7DF8C2FF7DFCF910895E3
:1005B00081E0F5DF0C94F91780E0F1DF0C940A1864
:1005C0003FDF0E94F91617C018D03BDF0C94FD16D0
:1005D00081E008950895CF93DF93D82FF9DFC82FD6
:1005E000803011F08D2FF6DF8C2FDF91CF910895A1
:1005F0000895F1CF089580E0FCCF0E94F314F9CF65
:10060000CF930E94F314C82F80912C018C1771F0A6
:10061000C0932C010E94C91760932D0170932E0185
:1006200080932F01909330018C2FE3DFCF910895B9
:10063000ADE0B0E0EEE1F3E00C94691E4887598725
:100640006A877B87182F8C879D87911166D71F82B9
:1006500086E0FE0138969E012F5F3F4FD901019041
:100660000D928A95E1F711110CC029813A814B81D5
:100670005C816D817E818F81A8D62D96E3E00C94FC
:10068000851ECE01019611DF8111EFCFF6CFFC015F
:100690002481213019F4808191816DC408956030E6
:1006A00021F00E946F120C9422130E94AF12FBCF14
:1006B000CF93C82F803081F08450813A78F48C2F0A
:1006C0000E94A715803021F08C2F0E944216B0D7CF
:1006D0008C2F0E942B16ACD7CF9108958C2F805E63
:1006E000883048F481E0C1FD84E0C0FD880FC2FD80
:1006F0008295F4D6F0CF8C2F855A833068F482E847
:1007000090E0C63A31F081E890E0C73A11F483E80E
:1007100090E00E943315E0CF8C2F885A8B3108F07F
:100720005BC0C95A82EE90E0CA3140F4EC2FF0E091
:10073000E151F14E0C94541E8AEE90E00E945A153D
:10074000CBCF85EB90E0FACF86EB90E0F7CF83EB51
:1007500090E0F4CF84EB90E0F1CF87EB90E0EECF28
:100760008CEC90E0EBCF8DEC90E0E8CF83E891E06B
:10077000E5CF8AE891E0E2CF82E991E0DFCF84E93A
:1007800091E0DCCF8FE991E0D9CF8BEC91E0D6CF2F
:1007900081E292E0D3CF83E292E0D0CF84E292E094
:1007A000CDCF85E292E0CACF86E292E0C7CF87E262
:1007B00092E0C4CF8FE690E0C1CF80E790E0BECF5B
:1007C0008AE292E0BBCF8FE992E0B8CF80EA92E074
:1007D000B5CF89EE90E0B2CF8C2F8D5C833108F0DD
:1007E0007BCF61E08C2F5BDF77CF803059F1982F82
:1007F0009450913A18F40E9442161AC7982F905EAE
:10080000983050F4982F81E091FD84E090FD880F9E
:1008100092FD829569D6F1CF982F955A933020F4A6
:1008200080E090E00C943315982F985A9B3120F477
:1008300080E090E00C945A15982F9D5C933110F451
:1008400060E02DCF08951F93CF93DF93182FEB0116
:100850002FDF209731F4812FC8DFDF91CF911F91D7
:1008600008958FE99FE00197F1F700C000002197FC
:10087000F0CF60E570E0893311F060E070E0E3CF25
:10088000803011F02BD6D4C60895803011F02CD6CC
:10089000CFC60895A0E0B0E0E0E5F4E00C94641E5B
:1008A0006C01062FC72FFC01D581168112951F7090
:1008B0000AD6E82E803061F0ED2ED03049F08C2F32
:1008C000807F8034C1F0802F805E883060F4E12C1E
:1008D000EC2FE295EF70C03C08F040C0F0E0E75F1D
:1008E000F04E0C94541E8C2F807E803221F4023006
:1008F00070F3103061F38091230282FFE8CF82E031
:10090000BBD6E1D591E08927E82EE2CF1C2F1F70DE
:10091000C03110F01295107FD03081F0103049F0C6
:10092000802F805E883010F0011105C0812FD6D550
:100930007FD6802F40C0812FE2D5FACF802F55DFA0
:10094000103061F0802F805E883010F0011103C0FC
:10095000812FCAD502C0812FD8D56AD6E11409F4F7
:10096000B3C0ADD580FDB0C0F6011582A2D51BD2B3
:10097000C60168D19ED525D2A7C08C2F8F70F82EC6
:10098000C07FC03219F0F29480EFF822013038F0C5
:1009900079F1D03009F438C01030C9F0CACF809155
:1009A000230282FD10C0D03041F0F11419F08F2DD8
:1009B00095D53ED680E07CDED1CF80E016DFF11405
:1009C00069F28F2DC6CFD03051F0113018F48F2D31
:1009D00057DFC4CF09F0C2CF8F2DB3D5BFCF1111D0
:1009E000BDCF8F2D52DF8F2DB7D58F2D9CD5B6CF94
:1009F000D03021F0163008F0B1CFE9CF153008F033
:100A0000ADCF8F2D42DFAACF1030D9F3093349F48F
:100A10008FEF97EE23E0815090402040E1F700C037
:100A20000000802FE2DE9ACF8C2F8695869583700A
:100A3000813060F009F092CF802F9C2F9370D111FC
:100A400002C080E090E00E945A1588CF802F9C2F32
:100A50009370D11102C080E090E00E9433157ECFE8
:100A60006D2F802F1CDE7ACF8C2F8370C1F5D111B2
:100A700028C0202F229526952770220F220F402F65
:100A80004F7050E0022E02C0440F551F0A94E2F747
:100A900080E090E004FF09C08FE090E002C0880F82
:100AA000991F2A95E2F780959095C695C695C370D3
:100AB000842B952BC23079F0C33079F0C13049F0E6
:100AC0004BD10E94F31495DDCDB7DEB7E8E00C946E
:100AD000801E3BD1F6CF47D1F4CF35D1F2CFD03005
:100AE00059F1C0FFEECF202F229526952770220FB7
:100AF000220F402F4F7050E0022E02C0440F551FAE
:100B00000A94E2F780E090E004FF09C08FE090E0F3
:100B100002C0880F991F2A95E2F780959095C69597
:100B2000C695C370842B952BC23061F0C33061F041
:100B3000C13031F06BD1C5CF823008F4C2CFD3CFF2
:100B40005ED1BFCF6AD1BDCF1BD1BBCFCF70D0306C
:100B500029F08C2F28D1802F93DEB3CF802F95DE04
:100B60008C2F2FD1AECF023F31F168F4003FC1F09E
:100B7000013F89F0D03009F43EC0103009F438C08C
:100B8000802F96DD9ECF033FE1F0043F99F78091DF
:100B9000230282FD1EC08C2F8F71D03011F30FC045
:100BA000D03039F0153008F08CCF8C2F8F7119D1DF
:100BB00088CF1630F8CF8C2F8F71D111D2CFF3D0D0
:100BC00080CFD03021F08C2F8F71E4D07ACFDFD05E
:100BD00078CFD03029F063E08C2F8F7136D571CF6C
:100BE00081E04AD5123008F46CCF82E045D569CF58
:100BF0008C2F8F71E4CF103071F0093349F48FEFEF
:100C000097EE23E0815090402040E1F700C00000C3
:100C1000802FEBDD56CF8C2F8F71A3CF0F931F93B7
:100C2000CF93DF93EC01688179818D81ADD18C0107
:100C3000FBD088D0B801CE012DDEDF91CF911F917E
:100C40000F910895CF93DF93EC018C81803081F078
:100C5000CE014EDC81110FC036D4803049F08D8139
:100C6000803031F08091230282FF02C082E004D5FF
:100C7000DF91CF910895CE01D1DFCE0127DCF8CFEF
:100C800080E090E00E94331580E090E00E945A15C9
:100C900044D4CED40E943B130C9422130E945916C4
:100CA000EFCF2AD4FBCF282F92959F709630A1F0DA
:100CB00030F4925F9F70923020F080E008959A5F48
:100CC000F9CF203F99F020F481E0283EB0F7089555
:100CD00081E0243F91F7089591E0813F09F090E091
:100CE00081E0283E08F080E0892B089581E0089596
:100CF000FC012481203021F0808191813CD1D3CF2F
:100D000080E00895A6E0B0E0E8E8F6E00C946A1E02
:100D10002696E2E00C94861EA7E0B0E0E2E9F6E059
:100D20000C946A1E2796E2E00C94861E0895FECF6E
:100D30000895FDCF0895FADFFCDF80934C01909376
:100D40004D0108950895F7CF089520914C013091F9
:100D50004D01822B932BEFCF20914C0130914D010F
:100D600082239323E8CF20914C0130914D018227BB
:100D70009327E1CFDBCF0895FDCF0895D7CF089516
:100D8000FDDFFADF80934A0190934B01089580E0E4
:100D900090E0F6CF21E030E002C0220F331F8A95A9
:100DA000E2F7C901EDCF21E030E002C0220F331F8E
:100DB0008A95E2F780914A0190914B01822B932B07
:100DC000DFCF21E030E002C0220F331F8A95E2F727
:100DD0002095309580914A0190914B018223932375
:100DE000CFCF21E030E002C0220F331F8A95E2F717
:100DF00080914A0190914B0182279327C1CF209186
:100E00004A0130914B01822B932BBACF20914A019A
:100E100030914B0182239323B3CF20914A0130912B
:100E20004B0182279327ACCF0895CF9390E0C1E088
:100E300061FDC4E060FDCC0F62FDC295687F646017
:100E400076956795E8F7660F771F660F771F460F51
:100E5000571FFA0140E050E06191DF019C01042E30
:100E600002C0369527950A94E2F72695220B26278D
:100E70002C2326272E934F5F5F4F4430510561F797
:100E8000CF910895A82FA770887F84609695879545
:100E9000E8F7880F991F880F991F680F791FFB01CA
:100EA00040E050E080E0219130E00A2E02C036950B
:100EB00027950A94E2F72170042E01C0220F0A94AC
:100EC000EAF7822B4F5F5F4F4430510561F7089579
:100ED000262F943068F48C3058F4682F70E08CE042
:100EE000989F600D711D112442E351E0822F9DCF28
:100EF0000895292F943010F080E008958C30E0F7A9
:100F000090E062E371E03CE0239F800D911D11248D
:100F1000B9CFCF92DF92FF920F931F93CF93DF93BE
:100F20006C0100914A0110914B0180914C0190910C
:100F30004D01082B192BCFE0D0E081E090E00C2E82
:100F400002C0880F991F0A94E2F780239123892B0E
:100F500031F0FC2EB6018C2F3DD6019719F4219764
:100F600060F7F12C8F2DDF91CF911F910F91FF90A2
:100F7000DF90CF900895CF93DF93EC01CADFBE01DD
:100F800029D6DF91CF9108951F93CF93DF93EB0183
:100F900090913101903031F0CB01EDDFDF91CF91B5
:100FA0001F910895803051F0CB01B3DF182F682FC7
:100FB000CE018EDFBE01812F0DD6F0CFCB0199DFA0
:100FC000182FF8CF0F931F9300914E0180914F017E
:100FD000801303C01F910F91089587E0089FF001CF
:100FE0001124E05BFE4F2081318142815381648175
:100FF0007581868191DE0F5F1F4F0770E7CF2091CB
:1010000088013091890140918A0150918B01609152
:101010008C0170918D0180918E017ECEE0914E0108
:1010200090914F01E91302C080E008959F0157E0BD
:10103000E59FF0011124E05BFE4F5181561306C07D
:101040005081581303C05581541305C02F5F3F4F83
:10105000F901E770E7CF81E0089584EB90E008950F
:10106000EF92FF920F931F93CF93DF9380918E01A6
:10107000803108F045C080918D01803009F440C076
:1010800080914E0190914F019817D1F17C0197E02A
:10109000899FE0011124FE01E05BFE4F84818030D6
:1010A000A1F191818091890198132FC09081809145
:1010B000880198132AC08581811127C0028113817C
:1010C00080918A0190918B01081B190B60E088E8E0
:1010D00091E0E2D968E871E0C0DF08171907A8F4C9
:1010E00080918E018F70806180938E01CA5ADE4F8D
:1010F00088818F708061888388E891E0A3DD62DF5A
:10110000CDB7DEB7E6E00C94821EC70183958770E9
:10111000B9CFADE0B0E0EFE8F8E00C945D1E8C01D3
:1011200086E0F801DE01189601900D928A95E1F7AC
:10113000F801E580F48088E8A82E81E0B82E80913F
:101140008C0181111EC0F114C9F0E114A9F0C8018D
:10115000CFDDF82E803081F087E0F801D5010190D5
:101160000D928A95E1F7C50192DA7ADF48DF8F2D7B
:101170002D96EFE00C94791EC80164DDFF24F394F2
:10118000F6CF82809380D0908D0180918A019091DA
:101190008B013401681A790AD11409F4D9C080810D
:1011A000C82E8181582E60E088E891E075D968E802
:1011B00071E053DF6816790608F09CC0F11409F459
:1011C000C5C090918901F801218180918E01803103
:1011D00008F053C0FE2C291314C02091880190817F
:1011E00029130FC0E11042C08F70806180938E017F
:1011F00006DF88E891E026DD80918E01F801868384
:10120000B6CFE11033C040E0652D8C2D07DF40E004
:10121000652D8C2D03DFE82E8111A9CF8885998556
:10122000AADE292F22952F70903458F49F70223017
:1012300080F0903091F0F8019681903170F4FE2C9E
:1012400096CF2A5F2F70223060F0C801FBDCED2CB6
:10125000F6CF903011F0803091F3805E883078F3D3
:10126000F4CF803F60F3815F8330F9CF80918E01AE
:10127000816080938E01F12C7ACF291314C02091C4
:101280008801908129130FC0E1100DC08683C80129
:10129000D9DC87E0F801A8E8B1E001900D928A95C9
:1012A000E1F7ADDE53C0C80123DD803009F464CF1F
:1012B000E11409F461CF80918E01803280F0209199
:1012C00088013091890129833A838B829C82909195
:1012D0008C019D831E828F83CE010196B3DC87E053
:1012E000F801A8E8B1E001900D928A95E1F7B8DE27
:1012F00086DE44CF80918E01803188F448855985FF
:101300006A857B858C859D85FDDC88E891E09ADC8B
:10131000F50187E011928A95E9F771DEACCFF114FF
:10132000A9F020918901F80191812913BCCF209166
:10133000880190812913B7CFE110B5CF8683C8010A
:1013400081DCF50187E011928A95E9F7FD2C0FCF3A
:1013500060E088E891E0A0D868E871E07EDE681679
:10136000790630F5F11409F409CFFE2CE11409F4E3
:1013700003CF90918901F801818198130DC090915C
:1013800088018081981308C087E0A8E8B1E0019047
:101390000D928A95E1F7EBCEC801AADC81119FCFAF
:1013A00080918E01816080938E01C8014BDCDFCE7D
:1013B000488559856A857B858C859D85A3DCF501EB
:1013C00087E011928A95E9F76CCFA7E0B0E0EBEEE9
:1013D000F9E00C94691E29833A834B835C836D8307
:1013E0007E838F83CE01019694DE6D81803099F0EB
:1013F000603039F029813A814B815C817E818F8117
:101400008BDC80914E0190914F01891331C027965A
:10141000E3E00C94851E6030A1F3A0914F018A2F68
:1014200090E08395877090E0AC0120914E012417E5
:10143000150691F097E09A9FD0011124A05BBE4F52
:101440009E012F5F3F4FF90101900D929A95E1F7B0
:1014500040934F01B7DDD5CF24DC10924F0110929D
:101460004E01E8E8F1E087E011928A95E9F7C9CFEB
:1014700017E0189FC0011124805B9E4F4ADE803028
:1014800031F2E0914E011E9FF0011124E05BFE4F0E
:1014900020813181428153816481758186813CDC68
:1014A00080914E0190914F010196877080934E017B
:1014B000A8CF8091B70186958695869508958091ED
:1014C000B701877008959091B701977081E09111ED
:1014D00001C080E008958091E30108959091E301B7
:1014E000982B9093E30108958095982F8091E301C4
:1014F00089238093E30108951092E3010895909168
:10150000E201982B9093E20108958095982F8091A5
:10151000E20189238093E20108951092E201089587
:101520000895FECF08959091B801292F282329F01E
:10153000809589238093B801F4CF08950895FECF54
:1015400008959091B901292F2823281721F0982B6D
:101550009093B901F4CF08959091B901292F2823D0
:1015600029F0809589238093B901E9CF089580916E
:10157000B901803021F01092B90180E0E0CF0895E8
:10158000CF93C091E3018091E201C82B8091B90112
:10159000803029F0C82B0E9481158111E8DF8C2F43
:1015A000CF910895CF93DF93C0910201D0910301B1
:1015B000E7DF8883C0910201D091030148E050E049
:1015C0006FEA71E0CE010E94A51E892B59F088E0D8
:1015D000FE01AFEAB1E001900D928A95E1F7CE01EC
:1015E0000E940215DF91CF910895CF93DF93C091B0
:1015F0000001D0910101C4DF8983C0910001D09125
:10160000010140E250E06FE871E0CE010E94A51EAA
:10161000892B59F080E2FE01AFE8B1E001900D9214
:101620008A95E1F7CE010E940F15DF91CF910895C1
:101630000E94EC14803029F08091220287FF01C0C3
:10164000D4CFB0CF0895FECF08959091230292FF9A
:101650000EC0982F990F990F990F962B9093B70161
:10166000A2DB8091B701869586958695ECCF9BCBC2
:101670001092B70180E0E7CF9091B7018095892360
:101680008093B701282F277059F4891749F090915A
:10169000230292FF05C086958695869592DBE8CF5A
:1016A00008959091230292FB222720F9281749F0F0
:1016B00080FB92F99093230282E292E043D082E091
:1016C000DBCF089580912302002482FF0394802DB4
:1016D000E8CF81E0E6CF80E0E4CF80E090E0BC019D
:1016E00004C480E090E0BC01FAD3F7CFA3E0B0E0FF
:1016F000ECE7FBE00C946A1EABD3B6D31B82CE01A1
:101700000396C9D381E090E080934C0110924D0183
:10171000CED3198284E18A83CE010196D9D3E1DF49
:101720002396E2E00C94861EE1CF0895A3C30895AA
:1017300090C30895A5C30895B4C30895B8C3089588
:10174000BBC30895C5C30895D6C30895A6E0B0E00D
:10175000ECEAFBE00C94681E0E94BD178C0180919E
:10176000E4019091E5018017910779F019821A82BE
:101770000E94BD17BC0149815A8180E090E00E941F
:1017800018030093E4011093E5012696E4E00C941D
:10179000841E0E94C9176093EA017093EB01809345
:1017A000EC019093ED016093E6017093E701809363
:1017B000E8019093E901089508950895FDCF0895F3
:1017C0000895FEDFFBCF0895FECF08950895FEDF54
:1017D000FBCF80EE9EE0E5D4F0DFF3CF81E008950B
:1017E00081E00895FBCF0895089508950895FCDFE2
:1017F000FCDFFCCF9DDF811101C096DF8EEE91E012
:1018000099DF82E292E09CDFE8D496DF9CDA809157
:101810004A0190914B01B0CA0E94B4172CD4EADF60
:101820000E94EA140E94F802D2CFA6E0B0E0EBE1F9
:10183000FCE00C945E1ED4DF81110AC087DF0E9499
:10184000EB143AD70E9400032696EEE00C947A1E21
:1018500021D42AE1822E22E0922E740110E0F701B9
:10186000C080D180812F52D31F5F143009F450C043
:1018700022E0E20EF11CC816D90689F38091EE0130
:1018800081FD4DD3AFDF682E10E0812F3FD37C0167
:10189000F401A190B1904F018A159B0599F1A826FA
:1018A000BF2400E091E0C92ED12CC5018C219D21DF
:1018B000892B01F177247394C7018C219D21892BF9
:1018C00009F4712C611489F0602F812F0E941F1779
:1018D00081110BC009831A830E94BD17BC01498185
:1018E0005A8181E0972D0E941803472D602F812F88
:1018F0000E9436170F5FCC0CDD1C0C30B1F6F401E2
:10190000F292E2921F5F143009F0BFCF42DF97CF0F
:10191000C816D90609F0B2CF91CF0F931F93CF937A
:10192000DF935AD1EC01D23508F04FC0D03508F022
:1019300025C1C03ED10528F5CD3CD10508F0FAC03F
:10194000C83AD10578F4C53AD10508F093C0C13042
:10195000D105A9F1CE010497813A904080F1C0E011
:10196000D0E02DC0CE01885A90404B97C0F7C85A9E
:10197000CB3108F0D9C0EC2FF0E0EB5EF04E0C94C8
:10198000541ED034A8F4D03208F00BC1C83ED105A3
:10199000B0F0CE0191509F3110F78D2FC0D1082F9C
:1019A0008C2F90E019D1D02FDF71C82FD92B07C011
:1019B0008C2F90E011D1DF70C82FD92BD06ACE01C7
:1019C000DF91CF911F910F910895C03882E5D8071C
:1019D000B8F5C03682E5D80708F0B4C0C03482E557
:1019E000D807C8F4C03282E5D80708F0A5C08C2F0C
:1019F0008695869520E2829FC0011124C37021E064
:101A000030E002C0220F331FCA95E2F7E901C82B6C
:101A1000D92BDD68D4CF8C2F86958695877020E2F0
:101A2000829FC0011124C37021E030E002C0220F68
:101A3000331FCA95E2F7E901C82BD92BDC68BFCF69
:101A4000C03C82E5D80758F48C2F8F71C03AD2453C
:101A500008F08DC0982F84EF906AEC01B0CFCE01D2
:101A6000805C9245809708F07ACFDC2FDF71C0EF61
:101A7000D06AA5CFC63A29F0C73A29F0C1E8D0E428
:101A80009ECFC2E8FCCFC3E8FACFC2EED0E0D46468
:101A900096CFCAEED0E0FBCFC5EBD0E0F8CFC6EBD7
:101AA000D0E0F5CFC3EBD0E0F2CFC4EBD0E0EFCF86
:101AB000C7EBD0E0ECCFCCECD0E0E9CFCDECD0E080
:101AC000E6CFC3E8D1E0E3CFCAE8D1E0E0CFC2E996
:101AD000D1E0DDCFC4E9D1E0DACFCFE9D1E0D7CF93
:101AE000CBECD1E0D4CFC1E2D2E0D1CFC3E2D2E09F
:101AF000CECFC4E2D2E0CBCFC5E2D2E0C8CFC6E2BF
:101B0000D2E0C5CFC7E2D2E0C2CFCFE6D0E0BFCFB0
:101B1000C0E7D0E0BCCFCAE2D2E0B9CFCFE9D2E093
:101B2000B6CFC0EAD2E0B3CFC0E0D0E0B0CFC9EECC
:101B3000D0E0ADCFD06543CF8C2F8F71D82FC1EFC0
:101B4000D06A3DCF8C2F86958695877020E2829F44
:101B5000C0011124C37021E030E002C0220F331F06
:101B6000CA95E2F7E901C82BD92BDA6828CFD7D07C
:101B7000982F80E09F71EC01D06221CF8C2F8F7164
:101B8000CED0DF71D062CC0FDD1FE8F7DF70282FD9
:101B900084FF04C090E1899F90011124C22FD06975
:101BA0000ECF8D2F8F71BBD0082F8C2F90E014D0CB
:101BB000302F3F71282F392B3062E90100CF462F9B
:101BC000743018F080E090E008956C30D8F7672FFB
:101BD0000C941002F4DFA1CE803E9105E9F1C8F427
:101BE0008133910509F484C048F48932910509F4E0
:101BF00074C08A32910509F482C008958933910531
:101C0000E9F082389105D1F08533910509F460C07F
:101C10000895843E9105E9F148F4823E910549F129
:101C2000833E910559F181EE90E00895863E91053D
:101C3000D9F1873E910509F440C008952091220210
:101C4000237019F080EE90E008952091230223FF85
:101C500014C089E290E008952091220220FD45C041
:101C60003091230230FF09C024FD24C083EE90E0B0
:101C700008952091220222FDF7CF0895209122029B
:101C800022FD44C03091230230FDDCCF24FFF5CF8C
:101C900011C02091230221FFF0CF8091220284FD08
:101CA00009C087EE90E008952091220223FFE5CF3E
:101CB00024FFF7CF80E090E008952091220223FDD9
:101CC00028C03091230231FFE1CF84EE90E00895E7
:101CD0002091220225FFD1CFBCCF2091220225FDE9
:101CE0001BC02091230223FFC8CF89E390E0089511
:101CF0002091220226FFC1CF8AE290E00895209130
:101D0000220226FFBACF81E390E0089582EE90E0B0
:101D1000089586EE90E0089585E390E0089590910F
:101D2000220292FF10C041E0282F2471243009F0D4
:101D300040E031E0282F2871283009F030E04317C7
:101D400011F02CE0822793FF10C041E0282F24716E
:101D5000243109F040E031E0282F2871283109F0C2
:101D600030E0431711F02CE082273091230230FF3E
:101D700010C051E0282F2171213009F050E041E0DE
:101D8000282F2871283009F040E0541711F029E07D
:101D9000822731FF10C041E0282F2171213109F045
:101DA00040E031E0282F2871283109F030E0431756
:101DB00011F029E0822794FF02C083FD877E0895F9
:101DC00080E00895CF939C01205E3245C1E020322F
:101DD000304038F4FB01C581C11103C08F710E94EE
:101DE000B9028C2FCF9108959C01FB018581803031
:101DF00099F02B359CE7390769F02C359CE73907BA
:101E000021F02A353C4721F008955CDC80E00895FC
:101E100060DCFCCF60DCFACF81E008959C01FB011F
:101E20008581803099F021309CE7390761F02330BB
:101E30009CE7390739F020303C4749F40E94D8022A
:101E400080E0089573DC0E94DC02FACF81E00895FF
:101E5000089580E090E00E94BA1E9C0181E0233E3C
:101E60003E4F09F080E0089563EE7EEF80E090E061
:101E70000C94D91E6FEF7FEF80E090E00C94D91E98
:101E8000CF93DF93EC0182E090E00E94B21E888342
:101E9000DF91CF910895FC01608182E090E00C9485
:101EA000BF1E83E090E00E94B21E90E00895682F6C
:101EB00083E090E00C94BF1ECF93DF93EC0184E0AD
:101EC00090E00E94BA1E88839983DF91CF91089594
:101ED000FC016081718184E090E00C94D91EAB011B
:101EE000BC018FE090E00C94D11EAB01BC0183E1FA
:101EF00090E00C94D11E682F8EE090E00C94BF1EF1
:101F00000895FECF08950895FECF0895E82FF0E0DC
:101F1000EE0FFF1FE45DFD4F8081918108950895CC
:101F200080EA8A95F1F7089500C00895F9CF0895E1
:101F3000F894E82FE295EF70AE2FAF5DB0E04C91D2
:101F40008F7021E001C0220F8A95EAF7922F9095B9
:101F500094239C93EE5DF0E09081822F892B808307
:101F600078940895CF93DF93C6E2D1E089918F3FB3
:101F700009F0DEDF81E0CA32D807C1F7CAE1D1E05B
:101F800089918F3F09F0D4DF81E0C632D807C1F7CD
:101F9000DF91CF910895AF92BF92DF92EF92FF92BF
:101FA0000F931F93CF93DF935C01D62EC62FD0E003
:101FB0008E010A5D1E4FF80180818F3F09F44FC0EA
:101FC000F894E82FE295EF70AE2FAF5DB0E09C91F2
:101FD0008F7021E001C0220F8A95EAF7892F822BAA
:101FE0008C93EE5DF0E08081209528232083789407
:101FF0009BDFEAE1F1E021E030E0E12CF12C4191BE
:102000004F3F79F0A42FA295AF70A05EB0E08C9105
:1020100090E04F7002C0959587954A95E2F780FF52
:1020200028C080E090E0E82AF92A220F331F81E0DF
:10203000E632F80721F7F80180818F3F09F078DF59
:1020400061E0E114FE0409F460E08D2D6FDFCC0F38
:10205000DD1FC5018C0F9D1FEC01E882F982DF9125
:10206000CF911F910F91FF90EF90DF90BF90AF90B5
:102070000895C901D8CF76DFECE2F2E088E0119252
:102080008A95E9F7E4E2F2E088E011928A95E9F7AF
:102090003CD037CFA8E0B0E0E0E5F0E10C94671E5B
:1020A000FE013196DF0188E01D928A95E9F710E084
:1020B0000E2FFF2E612F802F9F2D6DDF812F8F5FC1
:1020C000182F8430B9F748E050E0602F7F2D84E26C
:1020D00092E00E94A51E41E0892B69F440E06CE289
:1020E00072E084E292E012D0182F0EDF812F289642
:1020F000E5E00C94831E88E0E02FFF2DA4E2B2E01F
:1021000001900D928A95E1F7EACF0895EF92FF9240
:102110000F931F93CF93DF938C017B01D42F40301B
:1021200051F081E08093F10128D78093EF019093E3
:10213000F001C0E01EC0C091F101C030D1F080912B
:10214000EF019091F001AAD6059798F348E050E08E
:10215000B801C7010E94A51E892B41F088E0F80153
:10216000D70101900D928A95E1F7DC2F1092F101D1
:10217000CD2F8C2FCDB7DEB7E6E00C94821E55CB69
:10218000089595D60E943B1924DB0E94531944DB25
:102190000E945C190E945F19F2DF0E94751927DB0B
:1021A000F9CF80932A0190932B010895BFCA089517
:1021B00080E0ACDE817008956DDF8FEF96E721E05F
:1021C000815090402040E1F700C0000063DFF0DF65
:1021D000803011F0EBDF0DC70895EECF0895CF9357
:1021E000DF93EB0186319C47F9F475D99D819030DE
:1021F00091F08A7A91E0811101C090E09093F20110
:10220000803039F085E327D513DA80E0DF91CF9174
:10221000089589E2F8CF8091F201803019F085E3CA
:1022200031D5F2CF89E2FCCF81E0F0CFCF93DF93BD
:10223000EC01FB018581803009F4C8C09E01305754
:102240002332304008F0A8C082E292E079DAFE0141
:10225000E150F047E232F10520F4E05DF04E0C94DD
:10226000541E809122028160809322028FC080914F
:10227000230288608093230289C0809122028260B9
:10228000F3CF809122028460EFCF80912202886098
:10229000EBCF809123028160EDCF80912302826099
:1022A000E9CF809122028061DFCF8091220280629B
:1022B000DBCF809122028064D7CF0E9451068091AB
:1022C00022028068D1CF809122028C60CDCF809194
:1022D00023028360CFCF809122028E7FC5CF809171
:1022E0002302877FC7CF809122028D7FBDCF80914F
:1022F00022028B7FB9CF80912202877FB5CF809158
:1023000023028E7FB7CF809123028D7FB3CF809140
:1023100022028F7EA9CF809122028F7DA5CF80914E
:1023200022028F7BA1CF0E945106809122028F77DB
:102330009BCF80912202837F97CF809123028C7F55
:1023400099CF90912202892F8B7F92FF8460877FA3
:1023500092FF886089CF80912302982F909590FBFF
:1023600080F990FB81F986CF90912202892F8F7B93
:1023700096FF806479CF0E94510690912202892FA6
:1023800097FB87F9805870CF81E0DED982E292E036
:10239000D9D90E94510680E0DF91CF91089580E065
:1023A000F4CF90912202892F8F7E94FF80615CCFC1
:1023B00090912202892F8E7F90FF816055CF90915E
:1023C0002302892F877F93FF886054CF81E0E4CF79
:1023D000382F25EB3203C001112497FF04C0805829
:1023E0009040892F089580589F4FFBCF8091F9012D
:1023F00080FF0DC06091090170E0660F771F6038A3
:10240000710588F56030760781F1862F089581FF88
:1024100007C06091090184E0689FB0011124EFCFEB
:1024200082FF04C06091090188E0F6CF9091F80125
:102430009030B9F06091080180910901961728F059
:1024400098E0899FB0011124DACF899FC00111243F
:102450009F719062880F991FE8F770E00E94411EFB
:10246000CECF68E0D2CF8FE7089581E008958091C4
:10247000F90180FF0CC06091050170E075956795CA
:10248000759567956030760741F1862F089581FF35
:1024900006C06091050170E075956795F3CF609176
:1024A000050182FD0BC09091F7019030A1F0609181
:1024B000040180910501961738F0682F70E06038AC
:1024C000710500F38FE70895899FC001112470E022
:1024D0000E94411EF4CF61E0D8CF81E00895E82F3B
:1024E000ED5CE33198F5F0E0EE5AF04E0C94541E9A
:1024F0007DDF81958093FD01089578DFFBCF76DF46
:1025000081958093FC01089571DFFBCFB0DF80934C
:10251000FE010895ACDF8195FACFA9DF8195809304
:10252000FF010895A4DFFBCF815D990B21E001C07D
:10253000220F8A95EAF78091FB01822B8093FB01A1
:1025400008958091F90181608093F9010895809147
:10255000F9018260F9CF8091F9018460F5CF409153
:10256000FC018D3C59F48091FD0187FF0DC0109254
:10257000FD01403059F41092F80108C08E3C79F406
:102580008091FD0118169CF3403079F08091FE0196
:102590009091FF01892B11F41092F70108958F3C5F
:1025A00041F447FFF1CF1092FC018091FD01803092
:1025B000E1CF803D19F41416B4F3E6CF9091FE01FB
:1025C000893D29F4191604F71092FE01DDCF8A3DEA
:1025D00019F497FFD9CFF8CF9091FF018B3D29F4E3
:1025E00097FFD2CF1092FF01CFCF8C3D19F419166F
:1025F000CCF3CACF982F915D983078F4815D990B18
:1026000021E001C0220F8A95EAF7822F80959091F0
:10261000FB0189238093FB01B7CF8D3D31F480917D
:10262000F9018E7F8093F901AFCF8E3D21F4809127
:10263000F9018D7FF7CF8F3D09F0A6CF8091F90189
:102640008B7FF0CF9AD49C019091FC018091FD0189
:10265000982B21F02093F5013093F6019091FE0123
:102660008091FF01982B21F02093F3013093F40126
:102670008AEF91E0E6C1EAEFF1E086E011928A95F7
:10268000E9F71092F8011092F7011092F9010895FC
:10269000FC018281803019F081E08170089583818E
:1026A0008111FACF84818111F7CF91E08581811169
:1026B00001C090E0892FF1CFA6E0B0E0E2E6F3E1BF
:1026C0000C94671E86E0EAEFF1E09E012F5F3F4F1A
:1026D000D90101900D928A95E1F71092FC011092B8
:1026E000FD011092FE011092FF018B819C81892BCC
:1026F000022FF32E803081F08091F5019091F60148
:10270000CDD3AC019091F8019030A1F180910A01F4
:102710008417150608F43BC08D819E81892B89F0B2
:102720008091F3019091F401B9D3AC019091F7013C
:10273000903009F45AC0809106018417150608F4F8
:1027400062C0602F7F2D8AEF91E0CBD2811104C04F
:102750008AEF91E09DDF811175DF86E0E02FFF2D8C
:10276000AAEFB1E001900D928A95E1F72696E5E097
:102770000C94831E20910B018AE0289F9001112464
:102780002417350748F69F5F9093F80102C09F3FDA
:10279000D1F71B81103051F029DE91E011160CF0B9
:1027A0009FEF899F802D11248093FC011C811030A4
:1027B00051F01CDE91E011160CF09FEF899F802DE7
:1027C00011248093FD018091FC01803009F4A4CF95
:1027D0001091FD01103009F49FCFFADD8093FC01C8
:1027E000812FF6DD8093FD0197CF209107018AE0CC
:1027F000289F900111242417350708F0A2CF9F5F6E
:102800009093F70102C09F3FD1F71D81103051F026
:102810002EDE91E011160CF09FEF899F802D112480
:102820008093FE018E81182F803051F020DE91E0E0
:1028300011160CF09FEF899F802D11248093FF01CA
:102840008091FE01803009F47CCF9091FF01192F17
:10285000903009F476CFBCDD8093FE01812FB8DD86
:102860008093FF016ECFA0E0B0E0E9E3F4E10C94C7
:10287000621E7C015B01C42FD22FFC018581803058
:10288000C9F04093020279D3809300029093010231
:102890008C2F805E883048F481E0C1FD84E0C0FD6B
:1028A000880FC2FD82950E944004CDB7DEB7EAE0F2
:1028B0000C947E1E10910202141338C08091000205
:1028C00090910102EBD26C01B701C5010E942D0865
:1028D000C816D90658F5CD2FC05E1D17C1F0812F3F
:1028E000805E883048F481E011FD84E010FD880F9F
:1028F00012FD82950E944504C83048F481E0D1FD64
:1029000084E0D0FD880FD2FD82950E944004802F84
:102910000E94390481E0D1FD84E0D0FD880FD2FD12
:102920008295C83010F60E944504BFCF8C2F805E80
:10293000883008F0BACF81E0C1FD84E0C0FD880F87
:10294000C2FD8295F0CF0F93FC01CB01E851FC470B
:10295000E730F10588F5EB59F04E0C94541E06E271
:1029600021EE41EE6AE17CE77EDF80E00F91089581
:1029700007E225EE45EE6BE17CE7F6CF06E221EEBD
:1029800040EE68E17CE7F0CF07E225EE44EE69E136
:102990007CE7EACF06E221EE42EE6CE17CE7E4CF91
:1029A00007E225EE46EE6DE17CE7DECF08E221E0AE
:1029B00045EE6EE17CE7D8CFFB018581803019F0D0
:1029C00010920202D3CF81E0D1CF8093070290937F
:1029D0000802089508950895EBD1982F81E0913071
:1029E00009F080E00895E0910702F0910802309725
:1029F00011F480E008950190F081E02D3097C9F343
:102A000009950895E0910702F0910802309731F09E
:102A10000280F381E02D309709F009950895E09147
:102A20000702F0910802309759F024813581232B59
:102A300039F026E0DC012C930480F581E02D099526
:102A40000895E0910702F0910802309759F026812D
:102A50003781232B39F022E0DC012C930680F781AB
:102A6000E02D09950895A3E0B0E0E9E3F5E10C94C9
:102A70006A1E209105023091060228173907B1F02D
:102A80008093050290930602E0910702F0910802FC
:102A9000309761F00084F185E02D309739F023E024
:102AA00029838A839B83CE01019609952396E2E0D0
:102AB0000C94861EA3E0B0E0E0E6F5E10C946A1EFB
:102AC000209103023091040228173907B1F0809356
:102AD000030290930402E0910702F09108023097FC
:102AE00061F00084F185E02D309739F024E02983EE
:102AF0008A839B83CE01019609952396E2E00C948C
:102B0000861ECF93DF93C0910201D091030164DF51
:102B1000803021F08091220287FD11C09E012E5F3E
:102B20003F4F96E080E09150F90140812F5F3F4F89
:102B300041118F5F9111F7CFDF91CF9108952091CF
:102B40000001309101012E5F3F4F9EE1EBCFCF930B
:102B5000C82F811102C080E02EC03EDF803021F0FE
:102B60008091220287FD0FC08091020190910301A4
:102B7000FC013296089620812C17F9F03196E8175F
:102B8000F907C9F7E8CF8C2F869586958695C03FC3
:102B900010F7E0910001F0910101E80FF11D228191
:102BA00030E0C77081E001C0880FCA95EAF728239A
:102BB00081E0232B81F2CF91089581E0FCCF9C012D
:102BC000FC01329680E09FEF4081461759F0319624
:102BD0009F3F19F4411101C0982F8F5F8630A1F7F4
:102BE0009F3F09F40895290F311DF901628308956B
:102BF000FC01329608962191261302C0DF011E9235
:102C0000E817F907C1F70895262F269526952695EA
:102C1000603F60F4820F911DFC01677021E001C0EC
:102C2000220F6A95EAF78281822B82830895262FEC
:102C3000269526952695603F68F4820F911DFC012C
:102C40009DEF61FD97EF60FF959562FD9295828102
:102C5000892382830895CF93C82FBEDE6C2F8030E6
:102C600059F08091220287FF07C080910001909166
:102C70000101CADFCF910895809102019091030173
:102C80009EDFF8CFCF93C82FA7DE6C2F803059F08E
:102C90008091220287FF07C080910001909101017D
:102CA000C6DFCF9108958091020190910301A0DFCA
:102CB000F8CF92DE803071F08091220287FF0AC047
:102CC000E0910001F091010132968EE111928A9516
:102CD000E9F70895E0910201F0910301329686E050
:102CE000F5CFDC01FB0111969C911197818198171A
:102CF00019F081E08170089512968C9112978030BE
:102D000019F092818913F5CF13968C911397803027
:102D100019F093818913EDCF15968C91159780301A
:102D200019F095818913E5CF14969C91903021F08C
:102D300081E024812913DECF80E0DCCF0895FECF2F
:102D400008958F5F80930F0160910C0170910D01C8
:102D500080910E0190910F01F2CF83E080930F01DB
:102D600060910C0170910D0180910E0190910F0105
:102D7000E6CFE7CF089581E080930F0160910C01C9
:102D800070910D0180910E0190910F01D8CFF3CF7A
:102D9000089591E0811101C090E090930E0160913F
:102DA0000C0170910D0180910E0190910F01C7CF20
:102DB00080910E01089580930D0160910C01709136
:102DC0000D0180910E0190910F01B9CF80910D01FD
:102DD000089580930C0160910C0170910D01809118
:102DE0000E0190910F01ABCF80910C0108950895D1
:102DF0000895FECF089508950895F9CF08950F938B
:102E00001F93CF93DF93F7DF45D9F6DF09E012E098
:102E1000C0E0D0E08C2F7AD89C01F80181933193E7
:102E20008F0191E0232B09F490E0D92BCF5FC430C0
:102E300089F78D2FDF91CF911F910F910895E82F82
:102E4000F0E0EE0FFF1FE75FFD4F81E090E002C072
:102E5000880F991F6A95E2F7BC01808191816823F0
:102E6000792381E0672B09F480E00895411115C0B2
:102E7000E82FF0E0EE0FFF1FE75FFD4F81E090E0ED
:102E800002C0880F991F6A95E2F78095909520817E
:102E9000318182239323808391830895CF93DF939D
:102EA000EC016BD08C1B9D0BDF91CF91089585B702
:102EB000806885BF85B7806885BF08951F921FB65B
:102EC0001F9211248F939F93AF93BF938091110210
:102ED000811113C08091340290913502A091360285
:102EE000B09137024196A11DB11D80933402909399
:102EF0003502A0933602B0933702BF91AF919F91F4
:102F00008F911F901FBE1F90189580913C028430B6
:102F100031F10E94E0021092110288E190E020E479
:102F20000FB6F894A895809360000FBE20936000C0
:102F300083B7817F846083BF83B7816083BF7894C8
:102F4000889583B78E7F83BF0FB6F894A89580913C
:102F50006000886180936000109260000FBE089549
:102F60000E9451060C94E40282E084BD93E095BD7A
:102F70009AEF97BD80936E0008952FB7F8948091D3
:102F8000340290913502A0913602B09137022FBFE2
:102F900008952FB7F89460913402709135028091B2
:102FA0003602909137022FBF089578941F921FB672
:102FB0001F9211248F939F93AF93BF9380913402FC
:102FC00090913502A0913602B09137020196A11D71
:102FD000B11D8093340290933502A0933602B093D2
:102FE0003702BF91AF919F918F911F901FBE1F908D
:102FF000189587E797E7809300089093010888E188
:103000009AE00FB6F894A895809360000FBE909355
:103010006000FFCF88E19AE00FB6F894A8958093FE
:1030200060000FBE90936000FFCF9B01BA019091AA
:103030003C029430D9F48F708093E9009FEF809127
:10304000E80085FD06C085ED8A95F1F700009150F6
:10305000B1F78091E80085FF09C040E050E0C90168
:10306000B6D18091E8008E778093E800089543E020
:1030700050E0BC0182E0D9CF46E050E0BC0182E0E4
:10308000D4CF40E250E0BC0182E0CFCFCF93DF93BA
:10309000EC018EDE48E050E0BE0181E0C6DF88E052
:1030A000FE01A2E1B2E001900D928A95E1F7DF9175
:1030B000CF91089580913B02811107C00BD366D355
:1030C0008091E20084608093E200089510923B02B8
:1030D000089551DE81E05DCE6091380281E061119A
:1030E00001C080E03ACE90913C0281E0943009F03A
:1030F00080E0609138023DCE42E061EC81E064D234
:1031000042E261EC82E060D290913C0281E0943036
:1031100009F080E06091380214CE80913E0289303F
:1031200081F148F4823009F496C0833009F457C025
:10313000813041F008958A3009F480C08B3009F461
:1031400068C0089580913D02813A09F047C080919E
:10315000E800877F8093E8008091410290914202CD
:10316000892B59F060E080E090E070E072D18091AE
:10317000E8008B778093E800089568E082E192E0B0
:10318000F4CF80913D02813249F5809141029091C6
:103190004202029718F58091E800877F8093E8004B
:1031A0008091E80082FF16C02091F3008091F20028
:1031B000922F029731F48091F100813011F0863026
:1031C00019F48091F100F7DD8091E8008B7780930E
:1031D000E8002EC280913C028111E2CF08958091D7
:1031E0003D02813AD9F78091410290914202892BA8
:1031F000A9F78091E800877F8093E8008091E8003C
:1032000080FFFCCFD5DD8093F1008091E8008E77C0
:10321000DECF80913D02813209F780914102909189
:103220004202892BD9F68091E800877F8093E800DD
:10323000FFD180913F02ADDD0C94510680913D029B
:10324000813261F68091E800877F8093E800F0D1B9
:1032500080914002BECD80913D02813A09F0BECFFF
:103260008091E800877F8093E8008091E80080FFEC
:10327000FCCFBADDC8CF84B7877F84BF0FB6F89480
:10328000A895809160008861809360001092600032
:103290000FBE80E890E00FB6F894809361009093A1
:1032A00061000FBE74CD16D271D28091E2008460AD
:1032B0008093E2007894CCC480E191E086CB809149
:1032C0003C02853029F480913C02853011F048CED3
:1032D00008951BDE94DD8030B1F380913A02803096
:1032E00091F35FD00E945106EECF08959A0140916C
:1032F00043025091440200C0492F50E04330510531
:10330000C9F070F441305105E9F14230510571F4D2
:103310008BE390E04EE552E0F9014083518308953C
:1033200041325105E9F04232510519F180E090E057
:1033300040E0F2CF482F50E0813061F0423051053B
:1033400061F04030540791F7EAE5F2E0849190E0B3
:10335000AF01E2CFEEE4F2E0F9CFECE2F2E0F6CF3B
:1033600061307040A0F011F789E090E049E852E048
:10337000D3CF6130704080F0C9F686EB90E04BEA25
:1033800052E0CACF82E190E049E952E0C5CF89E03E
:1033900090E040E752E0C0CF84E490E041E653E0A3
:1033A000BBCF80E189BD82E189BD09B400FEFDCFBC
:1033B0008091D8008F7D8093D8008091E00082605A
:1033C0008093E0008091E00081FDFCCF0895A0E0B3
:1033D000B0E0ECEEF9E177C47C01EB018A0147D162
:1033E000B82E803029F08B2DCDB7DEB7E9E087C449
:1033F0000030100739F0F80180819181C81BD90B8A
:10340000E80EF91EC12CD12C21C031D18111ECCF95
:103410008091E80085FD11C08091E8008E7780934F
:10342000E8000030100789F3F801808191818C0D4C
:103430009D1D8083918385E0D7CFF70181917F0126
:103440008093F10021978FEFC81AD80A209701F7CF
:10345000CACFFC012091430230914402261737075E
:1034600048F06030760729F49091E8009E779093B9
:10347000E8009B0190E027C080913C028030D1F1B0
:103480008530E1F18091E80083FD3EC08091E80045
:1034900082FD1EC08091E80080FF15C08091F3007E
:1034A0004091F200582F2030320719F04830510572
:1034B000A8F091E04830504009F090E04091E800D9
:1034C0004E774093E80020303207B1F69111D4CF07
:1034D0008091E80082FF0AC080E008958191809386
:1034E000F100215030404F5F5F4FDDCF80913C02B3
:1034F000811102C082E00895853011F483E00895BF
:103500008091E80083FFE4CF81E00895FC012091E1
:103510004302309144022617370748F0603076079F
:1035200029F48091E8008E778093E8009B0190E079
:1035300027C080913C028030D9F18530E9F180913B
:10354000E80083FD3FC08091E80082FD1EC08091AD
:10355000E80080FF15C08091F3004091F200582FE1
:103560002030320719F048305105A8F091E048307A
:10357000504009F090E08091E8008E778093E80059
:1035800020303207B1F69111D4CF8091E80082FF4C
:103590000BC080E0089584918093F1003196215012
:1035A00030404F5F5F4FDCCF80913C02811102C001
:1035B00082E00895853011F483E008958091E80059
:1035C00083FFE3CF81E00895982F973028F08F7024
:1035D0008093E90081E008959093E900242F762FED
:1035E00050E0981731F07091EC002091ED0050916F
:1035F000F00021FD02C09F5FE8CF3091EB003E7FDD
:103600003093EB003091ED003D7F3093ED00309131
:10361000EB0031603093EB007093EC002093ED00F1
:103620005093F0002091EE0027FDE5CF80E0089553
:1036300080913D0287FF13C08091E80082FF06C0A1
:103640008091E8008B778093E800089580913C0298
:103650008111F2CF089580913C028030D9F380919E
:10366000E80080FFF8CF8091E8008E77ECCF4091A2
:10367000E4005091E50094E62091EC00822F8170E7
:1036800020FF06C08091E80080FF06C080E008951A
:103690002091E80022FD1DC080913C02803091F015
:1036A000853091F08091EB0085FD10C02091E40001
:1036B0003091E5004217530719F0903049F09150CE
:1036C000A901DACF82E0089583E0089581E00895AA
:1036D00084E008956BD072D08091E0008160809387
:1036E000E0008091D8008F778093D80019BC80913A
:1036F000D7008E7F8093D7008091D8008F7E8093F3
:10370000D80010923B02089551D058D08091D80033
:103710008F778093D8008091D80080688093D800FC
:103720008091D8008F7D8093D80019BC10923C0204
:103730001092380210923A02109239028091E00001
:103740008B7F8093E0008091D80081608093D800C7
:1037500042E060E080E038DF8091E1008E7F80937E
:10376000E1008091E20081608093E2008091E200BC
:1037700088608093E2008091E0008E7F8093E0007B
:103780008091D80080618093D80008958091D800FE
:103790008F7E8093D8008091D70081608093D7007E
:1037A00084E082BF81E080933B02AECF8091D8005D
:1037B0008E7F8093D8001092E20008951092DA0074
:1037C0001092E10008951F920F920FB60F921124EC
:1037D0002F933F934F935F936F937F938F939F9319
:1037E000AF93BF93EF93FF938091E10082FF0AC0F4
:1037F0008091E20082FF06C08091E1008B7F809380
:10380000E10025D28091DA0080FF18C08091D800B5
:1038100080FF14C08091DA008E7F8093DA0080915F
:10382000D90080FF8FC080E189BD82E189BD09B4E4
:1038300000FEFDCF81E080933C023CDC8091E10002
:1038400080FF18C08091E20080FF14C08091E200E8
:103850008E7F8093E2008091E20080618093E2009D
:103860008091D80080628093D80019BC85E0809355
:103870003C0232DC8091E10084FF28C08091E200AC
:1038800084FF24C080E189BD82E189BD09B400FEC6
:10389000FDCF8091D8008F7D8093D8008091E1008A
:1038A0008F7E8093E1008091E2008F7E8093E20022
:1038B0008091E20081608093E20080913802803044
:1038C00009F445C084E080933C020DDC8091E10066
:1038D00083FF27C08091E20083FF23C08091E10035
:1038E000877F8093E10082E080933C02109238024F
:1038F0008091E1008E7F8093E1008091E2008E7FD5
:103900008093E2008091E20080618093E20042E0D7
:1039100060E080E059DE8091F00088608093F000E4
:10392000D8DBFF91EF91BF91AF919F918F917F91E4
:103930006F915F914F913F912F910F900FBE0F901C
:103940001F90189519BC10923C02C0DB77CF809174
:10395000E30087FF02C083E0B6CF81E0B4CF1F92BF
:103960000F920FB60F9211242F933F934F935F93B3
:103970006F937F938F939F93AF93BF93CF93EF9367
:10398000FF938091E900C091EC008F70C0FBCC27C1
:10399000C7F9C82B1092E9008091F000877F8093CF
:1039A000F00078941CD01092E9008091F0008860BB
:1039B0008093F000CF70C093E900FF91EF91CF9119
:1039C000BF91AF919F918F917F916F915F914F9137
:1039D0003F912F910F900FBE0F901F901895AAE264
:1039E000B0E0E4EFFCE175C18DE392E0FC010196EB
:1039F0002091F100208322E085349207B9F78DDB16
:103A00008091E80083FF37C080913D0290913E0293
:103A10009A3088F5E92FF0E0E459F04E45C180383E
:103A200089F0823841F5809141028F70873018F516
:103A30008093E9008091EB0085FB882780F9109244
:103A4000E90006C080913A02880F90913902892BD3
:103A50009091E800977F9093E8008093F100109296
:103A6000F1008091E8008E7722C0811115C080910D
:103A70003F02813001F18091E80083FF0AC080910C
:103A8000E800877F8093E8008091EB00806280935C
:103A9000EB00AA96E3E039C1823069F780913F02DA
:103AA000803079F01092E9008091E800877F809360
:103AB000E800BEDDE0CF933009F080E080933A0269
:103AC000F1CF809141028F70282F2150263098F637
:103AD0008093E9002091EB0020FFE4CF933031F494
:103AE0008091EB0080628093EB00DCCF9091EB0043
:103AF00090619093EB0091E001C0990F8A95EAF7ED
:103B00009093EA001092EA008091EB008860EBCF7E
:103B10008111B1CF80913F028F77182F8091E30000
:103B20008078812B8093E3008091E800877F8093E9
:103B3000E8007EDD8091E80080FFFCCF8091E3000B
:103B400080688093E30083E0111101C082E08093DC
:103B50003C0291CF8058823008F08DCF80913F0297
:103B6000909140028C3D23E0920789F583E08A839F
:103B70008AE289834FB7F894DE01139620E03EE095
:103B800051E2E32FF0E050935700849120FF03C0EF
:103B900082958F703F5F8F708A30B8F0895C8D930B
:103BA0001D922F5F243169F74FBF8091E800877F16
:103BB0008093E8006AE270E0CE0101964ADC8091D1
:103BC000E8008B778093E80056CF805DE8CF609166
:103BD000410270914202AE014F5F5F4F87DBBC0133
:103BE000892B09F448CF9091E800977F9093E800E3
:103BF00089819A818BDCE3CF803809F03CCF8091BA
:103C0000E800877F8093E800809138028093F1007C
:103C100028CF811130CF90913F02923008F02BCF06
:103C20008091E800877F8093E8009093380200DD60
:103C300080913802803029F084E080933C025CDA85
:103C40001ACF8091E30087FDF7CF81E0F6CF08958A
:103C5000CF9380913C02803091F08091E900C09137
:103C6000EC008F70C0FBCC27C7F9C82B1092E9007D
:103C70008091E80083FDB3DECF70C093E900CF915F
:103C8000089597FB072E16F4009406D077FD08D010
:103C900048D007FC05D03EF4909581959F4F08953C
:103CA000709561957F4F0895EE0FFF1F0590F49179
:103CB000E02D09942F923F924F925F926F927F92E4
:103CC0008F929F92AF92BF92CF92DF92EF92FF922C
:103CD0000F931F93CF93DF93CDB7DEB7CA1BDB0BD8
:103CE0000FB6F894DEBF0FBECDBF09942A8839887D
:103CF00048885F846E847D848C849B84AA84B98484
:103D0000C884DF80EE80FD800C811B81AA81B9818F
:103D1000CE0FD11D0FB6F894DEBF0FBECDBFED01A3
:103D20000895AA1BBB1B51E107C0AA1FBB1FA61702
:103D3000B70710F0A61BB70B881F991F5A95A9F754
:103D400080959095BC01CD010895FB01DC0104C074
:103D50008D910190801921F441505040C8F7881B83
:103D6000990B0895F999FECF92BD81BDF89A9927D4
:103D700080B50895A8E1B0E042E050E020C0262FD1
:103D8000F999FECF92BD81BDF89A019700B4021651
:103D900039F01FBA20BD0FB6F894FA9AF99A0FBEFF
:103DA00008950396272FECDFEADF252FE9DF242F84
:103DB000E7CF0196272FE4DFE2CFDC01CB01FC0146
:103DC000F999FECF06C0F2BDE1BDF89A319600B474
:103DD0000D9241505040B8F70895F894FFCFE90391
:103DE0009C03A103A403AD03B303B603B003B9035B
:103DF000BC03BF03C803CB03CE03D103D403D70353
:103E0000E003A703AA03DA03DD03C203C503E30348
:103E1000E60386048604BD04BD0414053005AE0423
:103E2000AE043405A605B305B305450D970D490D40
:103E30004C0D4F0D580D5E0D610D5B0D640D670D42
:103E40006A0D730D760D790D7C0D7F0D820D8B0D36
:103E5000520D550D850D880D6D0D700D8E0D910D4A
:103E60006B11D81173113D114111771145117B115F
:103E700087115111D11155118B1159118F11B41195
:103E80005D119311BB1163119911A11149117F119A
:103E90004D11831167119D11AB11C411CF11371151
:103EA0006F11DF1178127D127F1284129412941216
:103EB00094129412941294129412941286128A12EA
:103EC0008D129212A112A712AB12BE14C414AF1419
:103ED000B814CA14D014D6140F1D351D3B1D351D42
:0C3EE0003B1D881DAA1D3B1DFC1D091E7A
:103EEC00BA01DA01280850011E0A14010000010071
:103EFC00E616461841183C183718F6F731333236A7
:0A3F0C003534C69766949190F5F4E1
:00000001FF
