:100000000C94B8010C94D5010C94D5010C94D50135
:100010000C94D5010C94D5010C94D5010C94D50108
:100020000C94D5010C94D5010C94311D0C94041E34
:100030000C9442180C94D5010C94D5010C94D50164
:100040000C94D5010C94D5010C94D5010C94D501D8
:100050000C94D5010C94C9180C94D5010C94D501BD
:100060000C94D5010C94D5010C94D5010C94D501B8
:100070000C94D5010C94D5010C94D5010C94D501A8
:100080000C94D5010C94D5010C94D5010C94D50198
:100090000C94D5010C94D5010C94D5010C94D50188
:1000A0000C94D5010C94D5010C94D5012B00146847
:1000B0001A000800150017001C0018000C001200A0
:1000C00013682A00296104641661076209000A00A6
:1000D0000B000D000E620F6133642800E1001D006B
:1000E0001B00060019000500110010003600370043
:1000F00038004C00000000000000000000002C410F
:10010000025100000000000000000000000000009C
:10011000240025002600000030002E0224023602B2
:10012000220200000000270021002200230000001E
:1001300027021F0221023702000000000000000019
:100140001E001F002000000030022E002502320099
:100150002114000000000000000000000000010069
:100160000351000000000000000000000000200219
:10017000350064022D022F00000000000000000086
:1001800000000000000023021E0234002D002602A1
:1001900000005000510052004F000000000000001D
:1001A0003402640032022F0200004A004E004B006D
:1001B0004D0000000000000000000000000003519E
:1001C00001000000000000000000000000003A00F4
:1001D0003B003C003D003E003F004000410042002B
:1001E0004300000000000000AA00A900AE00440087
:1001F0004500AE00AA00A90000000000005C390024
:1002000000000000000000000000000000000000EE
:100210003900005C00000000000000000000010048
:100220000100000000000000000000002A03780028
:100230003000340065002000340038002D004B00F1
:100240006500790020004B006500790062006F00B6
:1002500061007200640000000A037800300034007E
:10026000650000000403090409023B00020100A02C
:10027000FA09040000010301010009211101000134
:100280002240000705810308000109040100010361
:10029000000000092111010001227B0007058203F3
:1002A0002000011201000200000008EDFEE0040140
:1002B000000102000105010902A10185020901A155
:1002C0000005091901290815002501950875018106
:1002D000020501093009311581257F9502750881D4
:1002E0000609381581257F950175088106050C0AD8
:1002F00038021581257F950175088106C0C005016A
:100300000980A101850319012AB700150126B7004C
:10031000950175108100C0050C0901A10185041922
:10032000012AA002150126A002950175108100C0C6
:1003300005010906A101050719E029E715002501B6
:10034000950875018102950175088101050719005D
:1003500029FF150026FF009506750881000508197C
:10036000012905950575019102950175039101C05B
:1003700011241FBECFEFDAE0DEBFCDBF11E0A0E059
:10038000B1E0EAE3F1E402C005900D92AA32B107B0
:10039000D9F722E0AAE2B1E001C01D92A230B20773
:1003A000E1F70E94ED120C942B200C94000081E0E8
:1003B000089581E008950C94D70108950C94DD010F
:1003C0001F93CF93DF9300D000D00F92CDB7DEB74D
:1003D00049835A836B8330912D0189819A81311130
:1003E0001DC06030B9F02030A9F00E94B308182F6A
:1003F000682F89819A810E945E0869817A81812FA4
:100400000F900F900F900F900F90DF91CF911F9151
:100410000C9455100E948B08182FEFCF0E94B30840
:1004200069817A81EDCFFC01262F40815181628163
:10043000738184810C94E00181E00895CF93DF9370
:10044000EC0160E00E941302BE01DF91CF910C9499
:10045000DE010C9488110C948B1108950E942F07D3
:100460000E942D028FEF94E32CE0815090402040B9
:10047000E1F700C000000C94ED180F931F93CF9389
:10048000DF938C0161E00E941302EC01B8010E942D
:10049000DB018030A9F1B801CE010E940D17803038
:1004A00079F1B801CE010E946515803049F1B8019B
:1004B000CE010E945416803019F1F80182818030FB
:1004C00061F0CB358DE5D80721F170F4C0308CE5B3
:1004D000D807A1F0CF3DDC45C9F0C801DF91CF912D
:1004E0001F910F910C94D901CC358DE5D807A1F05F
:1004F000CD35DC0791F70E94940DEFCF0E942E02BC
:1005000080E0DF91CF911F910F9108950E944E0ED0
:10051000F7CF0E949C0DE1CF0E949F0DDECF0E947D
:1005200026180C94A7020E94AA020C942A18089577
:100530000C94970281E008950C949A020895CF9349
:10054000C82F0E9498028C2FCF910C949C0280E0BF
:100550000C949F020E946C170C949F020E946C17CF
:1005600090912C01981721F080932C010C949F02FC
:1005700008950F931F93CF93DF93CDB7DEB72B97DB
:100580000FB6F894DEBF0FBECDBF4F835887698783
:100590007A878B8761110E94AC0C1E8225E0FE01D8
:1005A0003796CE010196DC0101900D922A95E1F774
:1005B0002091E001182F092F22FD0CC00E946E0C23
:1005C000803019F082E00E94630D0E94550C811169
:1005D0000E94E30C8C819D81892B99F449815A8179
:1005E0006B817C818D819E810E94B50B2B960FB60D
:1005F000F894DEBF0FBECDBFDF91CF911F910F9159
:10060000089589819A8189238F3F41F3812F902F0B
:100610000E941C028111E2CFE9CFFC01808191810F
:100620000C94F408CF93C82F803009F4D6C08238D8
:10063000C1F40E946C1781FDD0C089E30E943E0C7A
:100640000E94F10C8FEF91EE24E081509040204009
:10065000E1F700C0000089E30E94450CCF910C94A3
:10066000F10C8338A1F40E946C1780FDB6C083E5BD
:100670000E943E0C0E94F10C8FEF91EE24E081501D
:1006800090402040E1F700C0000083E5E5CF8438CA
:10069000A1F40E946C1782FDA0C087E40E943E0C6A
:1006A0000E94F10C8FEF91EE24E0815090402040A9
:1006B000E1F700C0000087E4CFCF8450813A90F486
:1006C0006C2F80910201909103010E94CD17803020
:1006D00029F08C2F0E94450C0E94F10C8C2F0E9457
:1006E0003E0CBCCF8C2F805E883050F481E0C1FD81
:1006F00084E0C0FD880FC2FD82950E948D0CAECFB4
:100700008C2F855A833068F482E890E0C63A31F045
:1007100081E890E0C73A11F483E890E0CF910C941F
:1007200091178C2F885A873108F04FC0C95A82EE32
:1007300090E0C63140F4EC2FF0E0E35DFF4D0C9407
:10074000C21F8AEE90E0CF910C94A71785EB90E042
:10075000FACF86EB90E0F7CF83EB90E0F4CF84EB19
:1007600090E0F1CF87EB90E0EECF8CEC90E0EBCF18
:100770008DEC90E0E8CF83E891E0E5CF8AE891E066
:10078000E2CF82E991E0DFCF84E991E0DCCF81E242
:1007900092E0D9CF83E292E0D6CF84E292E0D3CF49
:1007A00085E292E0D0CF86E292E0CDCF87E292E080
:1007B000CACF8FE690E0C7CF80E790E0C4CF8AE24F
:1007C00092E0C1CF89EE90E0BECFCD3E30F08C2FCD
:1007D0000E947313CF910C942D14CF910895803003
:1007E00009F453C0823871F40E946C1781FF4DC028
:1007F00089E30E943E0C0E94F10C89E30E94450CA3
:100800000C94F10C833859F40E946C1780FF3DC0A2
:1008100083E50E943E0C0E94F10C83E5EFCF843803
:1008200059F40E946C1782FF30C087E40E943E0C8E
:100830000E94F10C87E4E2CF982F9450913AF0F2A5
:10084000982F905E983058F4982F81E091FD84E0C5
:1008500090FD880F92FD82950E94930CD1CF982F26
:10086000955A933020F480E090E00C949117982FE3
:10087000985A973120F480E090E00C94A7178D3EB1
:1008800020F00E94BB130C942D1408951F93CF9356
:10089000DF93182FEB010E941203209731F4812F70
:1008A000DF91CF911F910C94EF038FE99FE00197A7
:1008B000F1F700C000002197F0CF60E570E08933C8
:1008C00011F060E070E00C944604803021F00E944A
:1008D0008D0C0C94F10C0895803021F00E94930C43
:1008E0000C94F10C08958F929F92AF92BF92CF9289
:1008F000DF92EF92FF920F931F93CF93DF936C01E0
:10090000062FC72FFC01D281F580F2948FE0F822E8
:100910000E94820CE82E803061F0ED2ED03049F03C
:100920008C2F807F803481F0802F805E883060F44F
:10093000E12CEC2FE295EF70C03C08F064C0F0E0D1
:10094000ED5BFF4D0C94C21F8091E00182FDF0CF62
:1009500082E00E94630D0E94820C91E08927E82EBC
:10096000E8CF1C2F1F70C03110F01295107FD030CF
:1009700099F0103059F0802F805E883010F001110E
:1009800007C0812F0E948D0C0E94F10C802F39C06E
:10099000812F0E949E0CF8CF802F0E94EF03103011
:1009A00091F1802F805E883010F0011104C0812FFA
:1009B0000E94930C03C0812F0E94A40C0E94F10C92
:1009C00022C01C2F1F70C07FC03211F01295107F03
:1009D000013048F009F470C0D03009F478C0F11447
:1009E00009F44FC0D3CF8091E00182FF32C0D030F4
:1009F00051F1103029F0812F0E948D0C0E94F10CD2
:100A000080E00E941203E11409F4C5C10E946A0C3F
:100A100080FDC1C1F60112820E94640C0E94DE07B3
:100A2000C6010E94EF060E94640CDF91CF911F91D6
:100A30000F91FF90EF90DF90CF90BF90AF909F907D
:100A40008F900C94F90780E00E94EF031030D9F2E8
:100A5000AECFD030D1F0F11004C00E94AF0C812B8A
:100A600011C08F2D813031F40E94AF0C812B0E9478
:100A7000CB0CC9CF853089F70E94E30C812F0E94EF
:100A8000B50C812F0E946504BECFF11006C00E94F4
:100A9000E30C812F0E946C04B6CF8F2D813041F47E
:100AA0000E948A0C812309F4AECF0E94BE0CEFCFC6
:100AB000853009F4A8CFEBCF8F2DD03021F08630D0
:100AC00008F0A1CFDECF853008F09DCFE2CFF11442
:100AD00001F3093349F48FEF97EE23E08150904002
:100AE0002040E1F700C00000802F0E94EF038BCF71
:100AF0008C2F869586958370813060F009F083CFC6
:100B0000802F9C2F9370D11102C080E090E00E9452
:100B1000A71779CF802F9C2F9370D11102C080E04E
:100B200090E00E9491176FCF802FD03029F00E9463
:100B300073130E942D1467CF0E94BB13FACF8C2F22
:100B4000837009F048C0D11138C0202F2295269516
:100B50002770220F220F402F4F7050E060E070E0AE
:100B6000022E04C0440F551F661F771F0A94D2F748
:100B7000A0E0B0E0CD0104FF0FC08FE090E0A0E066
:100B8000B0E004C0880F991FAA1FBB1F2A95D2F797
:100B900080959095A095B095C695C695C370842B09
:100BA000952BA62BB72BBC01CD01C23071F0C33001
:100BB00079F0C13039F00E949E070E946C170E94A4
:100BC0009F0221CF0E949007F8CF0E94AC07F5CF7B
:100BD0000E948E07F2CFD030E1F1C0FFEECF802F20
:100BE000829586958770880F880F802E9FE08922D6
:100BF000912CA12CB12C082E04C0880C991CAA1C85
:100C0000BB1C0A94D2F760E070E0AB0104FF0FC098
:100C10004FE050E060E070E004C0440F551F661FD5
:100C2000771F8A95D2F74095509560957095C69537
:100C3000C695C370482959296A297B29CB01BA0175
:100C4000C23071F0C33079F0C13039F00E944108F0
:100C5000B4CF823008F4B1CFC2CF0E943308ADCFF9
:100C60000E944F08AACF0E94BE07A7CFCF70D030F6
:100C700039F08C2F0E94DE07802F0E9465049DCFE3
:100C8000802F0E946C048C2F0E94F90796CF023FA0
:100C900049F170F4003FC9F0013F91F0D03009F400
:100CA00066C0F11409F460C0802F0E94120385CF42
:100CB000033FF9F0043F91F78091E00182FF23C0E8
:100CC0008C2F8F71D03001F311C08F2DD03041F0B7
:100CD000853008F072CF8C2F8F710E9418086DCF6D
:100CE0008630F7CF8C2F8F71D111CECF0E94DE07C7
:100CF00064CFD03029F08C2F8F710E94CF075DCF49
:100D00000E94CA075ACFD030E1F00E94520C0E94D4
:100D1000930C0E946A0C843041F40E945A0D8C2F6F
:100D20008F710E94F907E12C48CF8F2D8530D8F7BD
:100D3000CF718C2F0E94DE0763E08C2F0E943E0D46
:100D4000F2CF0E94520C0E948D0C8F2D853040F006
:100D50000E945A0D0E94BE0C64E08C2F8F71EECF62
:100D600081E00E94630DDFCF8C2F8F71BFCFF11414
:100D700079F0093349F48FEF97EE23E081509040EA
:100D80002040E1F700C00000802F0E94EF0315CF44
:100D90008C2F8F7179CFDF91CF911F910F91FF90A1
:100DA000EF90DF90CF90BF90AF909F908F9008957D
:100DB0000F931F93CF93DF93EC01688179818A8130
:100DC0000E94FE088C010E945D080E948D07B801F8
:100DD000CE01DF91CF911F910F910C947304CF93AB
:100DE000DF93EC018B819C81892B11F189819881A2
:100DF00089238F3FE9F0CE010E943D02811110C08E
:100E00000E94820C8030A1F08A81803089F080912C
:100E1000E00182FD0DC082E0DF91CF910C94630D63
:100E2000CE010E94D806CE01DF91CF910C941E0214
:100E3000DF91CF91089580E090E00E94911780E0CB
:100E400090E00E94A7170E94AC0C0E94F10C0E9437
:100E500058150C942D140E944C0C0C941B070E94E6
:100E60009B0C0C942B07282F92959F709630A1F025
:100E700030F4925F9F70923020F080E008959A5F86
:100E8000F9CF203F99F020F481E0283EB0F7089593
:100E900081E0243F91F7089591E0813F09F090E0CF
:100EA00081E0283E08F080E0892B089581E00895D4
:100EB000FC01808191810E94F4080C943307CF9348
:100EC000DF9300D000D00F92CDB7DEB70F900F9018
:100ED0000F900F900F90DF91CF910895CF93DF93F4
:100EE00000D000D000D0CDB7DEB70F900F900F909C
:100EF0000F900F900F90DF91CF91089508950C946B
:100F00007E070E947F076093500170935101809388
:100F10005201909353010C941B0708950C94810780
:100F20002091500130915101409152015091530153
:100F3000622B732B842B952B0C94810720915001ED
:100F4000309151014091520150915301622373231A
:100F5000842395230C9481072091500130915101F5
:100F6000409152015091530162277327842795279E
:100F70000C9481070C947E070C94BA070E94BC075E
:100F800060934C0170934D0180934E0190934F01FB
:100F90000C941B0780E090E0BC010C94BE0741E07C
:100FA00050E060E070E004C0440F551F661F771FDB
:100FB0008A95D2F7CB01BA010C94BE0741E050E00C
:100FC00060E070E004C0440F551F661F771F8A95CC
:100FD000D2F780914C0190914D01A0914E01B091BA
:100FE0004F01482B592B6A2B7B2BCB01BA010C9458
:100FF000BE0741E050E060E070E004C0440F551FC0
:10100000661F771F8A95D2F7409550956095709529
:1010100080914C0190914D01A0914E01B0914F01F2
:10102000482359236A237B23CB01BA010C94BE07C2
:1010300041E050E060E070E004C0440F551F661FBF
:10104000771F8A95D2F780914C0190914D01A09124
:101050004E01B0914F01482759276A277B27CB01C2
:10106000BA010C94BE0720914C0130914D01409182
:101070004E0150914F01622B732B842B952B0C94B6
:10108000BE0720914C0130914D0140914E0150918D
:101090004F0162237323842395230C94BE07209170
:1010A0004C0130914D0140914E0150914F0162270A
:1010B0007327842795270C94BE070895E82F8CE0AA
:1010C000989FE00D112470E051E0E1FD54E0E0FD57
:1010D000550FE2FD5295E695E695E69585E0E89F89
:1010E000F0011124E25DFE4F20E030E04191DF018C
:1010F000CB01022E02C0969587950A94E2F7869559
:10110000880B8427852384278E932F5F3F4F2530BC
:10111000310561F70895E82F8CE0989FE00D1124C8
:10112000BF016770E695E695E69585E0E89FF001DA
:101130001124E25DFE4F40E050E080E0219130E07C
:10114000062E02C0369527950A94E2F72170042EE8
:1011500001C0220F0A94EAF7822B4F5F5F4F4530A0
:10116000510561F70895AF92BF92CF92DF92EF924F
:10117000FF921F93CF93DF935C01C0904C01D090FE
:101180004D01E0904E01F0904F01809150019091FF
:101190005101A0915201B0915301C82AD92AEA2ADB
:1011A000FB2ACFE1D0E0C601D7010C2E04C0B695D2
:1011B000A795979587950A94D2F780FF07C01C2FB3
:1011C000B5018C2F0E946910019719F4219758F7E7
:1011D00010E0812FDF91CF911F91FF90EF90DF9072
:1011E000CF90BF90AF900895CF93DF93EC010E9412
:1011F000B308BE01DF91CF910C9469101F93CF9378
:10120000DF93EB0190912D01903031F0CB01DF9114
:10121000CF911F910C94F408803079F0CB010E949B
:10122000B308182F682FCE010E945E08BE01812FDF
:10123000DF91CF911F910C946910CB010E948B0814
:10124000182FF4CF0F931F930091540180915501F3
:10125000801303C01F910F91089586E0089FF0014D
:101260001124EA5AFE4F4081518162817381848149
:1012700095810E946E070F5F1F4F0770E7CF409167
:101280008601509187016091880170918901809158
:101290008A0190918B010C946E07809100019091CE
:1012A00001010895EF92FF920F931F93CF93DF9365
:1012B00080918B01803150F480918801803031F031
:1012C0008091540190915501981307C0DF91CF91FF
:1012D0001F910F91FF90EF90089520918901309117
:1012E0008A017C012030320709F440C090918601C8
:1012F00040918701542F59235F3FC1F156E0859FEC
:10130000E0011124FE01EA5AFE4F818184132EC0B0
:10131000808189132BC08281811128C003811481AF
:10132000021B130B60E086E891E00E94130266E85E
:1013300071E00E944D0908171907C0F480918B01D4
:101340008F70806180938B01C55ADE4F88818F70CA
:101350008061888386E891E00E94EF06DF91CF915B
:101360001F910F91FF90EF900C942209C701839574
:101370008770A8CF6F927F928F929F92AF92BF9209
:10138000CF92DF92EF92FF920F931F93CF93DF9351
:10139000CDB7DEB72B970FB6F894DEBF0FBECDBF2B
:1013A0008C0185E0F801DE01179601900D928A9577
:1013B000E1F7F801A08091808280E380F48060E012
:1013C00086E891E00E9413023C012091890130914E
:1013D0008A012030320709F4AFC1809187019091D2
:1013E000860189238F3F09F4A7C1B0908801670166
:1013F000C21AD30A60E086E891E0B11409F456C13C
:101400000E94130266E871E00E944D0920918B0151
:10141000C816D90608F00EC1809186019091870107
:101420004091890150918A01203108F0B7C0D82C31
:10143000452BF9F0292F28232F3FD9F0F8012181DE
:10144000291317C09081981314C0811012C0809185
:101450008B018F70806180938B010E943F0986E829
:1014600091E00E94EF0680918B01F8018583B12CF9
:101470007FC066E871E0C3010E944D09843F91403E
:1014800008F444C0EF2809F443C08A2D89218F3F16
:1014900031F0E0915401809155018114A1F18A2D20
:1014A00089218F3FA9F1811036C0E09154018091CC
:1014B0005501E81336C08F8198850E94F408292FC2
:1014C00022952F70903208F041C09F7019F0803043
:1014D00009F44DC0805E883008F449C03BC09F01CC
:1014E00096E09E9FF0011124EA5AFE4F91819912D5
:1014F00006C09081A91203C092819111A4C02F5FF0
:101500003F4FF901E770E813EACFC9CFEF2839F66A
:10151000811409F4ACCF80918B01816080938B01A1
:10152000A6CF9F0196E0E99FF0011124EA5AFE4FF1
:101530009181991206C09081A91203C092819111E4
:1015400096CF2F5F3F4FF901E770B3CF225F2F7027
:10155000223028F0C8010E94EF06DB2C08C09F70E3
:1015600009F4B8CFF8019581903108F0B3CFBD2CC4
:101570008B2D2B960FB6F894DEBF0FBECDBFDF913B
:10158000CF911F910F91FF90EF90DF90CF90BF9080
:10159000AF909F908F907F906F900895452BF1F0C2
:1015A000292F28232F3FD1F0F8012181291316C0BC
:1015B0009081981313C0811011C080918B01858395
:1015C000C8010E94EF0686E0F801A6E8B1E00190AC
:1015D0000D928A95E1F70E943F09CACFC8010E9487
:1015E0005807803019F1811409F180918B01803204
:1015F00070F0209186013091870129833A831B8204
:10160000EC82FD828E83CE0101960E94EF0686E079
:10161000F801A6E8B1E001900D928A95E1F70E94E9
:1016200052090E943F09BB24B394A2CFC8010E9473
:10163000EF06F9CF2031A0F44F81588569857A856E
:101640008B850E945F0786E891E00E94EF06E6E83E
:10165000F1E086E011928A95E9F70E943F0907CFF1
:101660008091890190918A01892B09F4B7CF8091EB
:10167000860190918701282F29232F3F09F4AECFAF
:10168000F80121812913AACF90819813A7CF811047
:10169000A5CF80918B018583C8010E94EF06E6E803
:1016A000F1E086E011928A95E9F762CF0E94130279
:1016B00066E871E00E944D09C816D90678F5B82C85
:1016C000811409F4B3CF8091890190918A01892B0B
:1016D000B9F08091860190918701282F29232F3F0F
:1016E00079F0F801218129130BC09081981308C06B
:1016F00086E0A6E8B1E001900D928A95E1F738CF37
:10170000C8010E945807811182CF80918B018160AE
:1017100080938B01C8010E94EF062ACF4F81588524
:1017200069857A858B850E945F07E6E8F1E086E0AF
:1017300011928A95E9F74FCF811409F477CFC80148
:101740000E945807B82E803009F470CF86E0F80167
:10175000A6E8B1E001900D928A95E1F786E891E064
:101760000E940D030E94520936CF1F93CF93DF933F
:1017700000D000D000D0CDB7DEB749835A836B8349
:101780007C838D839E83CE0101960E94BA092C81B1
:101790003D815A8149818030E1F0232B51F0852F22
:1017A00084238F3F31F06B817C818D819E810E94EB
:1017B0006E07809154019091550189133CC00F90A0
:1017C0000F900F900F900F900F90DF91CF911F917E
:1017D0000895232B71F354235F3F59F3A0915501D2
:1017E0008A2F90E08395877090E0AC01209154019E
:1017F0002417150699F096E09A9FD0011124AA5A51
:10180000BE4F9E012F5F3F4FF90101900D929A95B7
:10181000E1F7409355010E942209CBCF0E942F0788
:101820001092550110925401E6E8F1E086E0119221
:101830008A95E9F7BECF16E0189FC00111248A5A95
:101840009E4F0E94BA09803009F4B9CFE09154014B
:101850001E9FF0011124EA5AFE4F4081518162819E
:101860007381848195810E946E07809154019091CB
:10187000550101968770809354019BCF682F80910A
:101880000201909103010C940318682F80910201CA
:10189000909103010C94051880910201909103012D
:1018A0000C9407188091990108950E94A118209125
:1018B000970130919801821B930B9C0181E0243F9A
:1018C000314008F480E008958091960185958595D2
:1018D0008595089580919601877008950E94A118BA
:1018E0002091940130919501821B930B843F91408C
:1018F00038F080919601002482FF0394802D089592
:1019000080E0089590919601977081E0911101C057
:1019100080E008958091A40108959091A401982BEE
:101920009093A40108958095982F8091A401892314
:101930008093A40108951092A40108959091A301A9
:10194000982B9093A30108958095982F8091A301DF
:1019500089238093A30108951092A3010895809193
:101960009A01089508950C94B20C909199019817DA
:1019700021F0809399010C94B30C08958091990102
:10198000803029F01092990180E00C94B30C0895F6
:1019900008950C94C80CCF93C82F8091E00182FD6C
:1019A00010C080919A018C1761F00E94A118809359
:1019B000970190939801C0939A018C2FCF910C942A
:1019C000C90CCF91089580919A01803049F010920E
:1019D0009A01109297011092980180E00C94C90C22
:1019E0000895CF93DF93E0910201F091030180917C
:1019F000A4018083E0910201F09103018081909124
:101A0000A301892B808380919A018030B9F00E94D4
:101A1000550C81110E94E30CE0910201F091030149
:101A2000808190919A01892B80838091020190910D
:101A300003010E94BD1781110E94E30CC0910201B5
:101A4000D091030148E050E06CE871E0CE010E94C3
:101A5000DC1F892B69F088E0FE01ACE8B1E0019061
:101A60000D928A95E1F7CE01DF91CF910C94781712
:101A7000DF91CF91089508950C943B0D9091E00172
:101A800092FD16C0982F990F990F990F962B90934E
:101A900096010E94DE070E94A11880939401909302
:101AA0009501809196018595859585950C943C0DC1
:101AB0000C94DE07109296011092940110929501F9
:101AC00080E00C943C0D9091960180958923809341
:101AD0009601282F277091F4282F382F330F330BBE
:101AE0009217130659F09091E00192FD07C0859579
:101AF000859585950E94F9070C945A0D089590914B
:101B0000E00192FB222720F9281769F080FB92F967
:101B10009093E0018091DF019091E0010E94CA0D55
:101B200082E00C94630D08958091E001002482FF0F
:101B30000394802D0C947F0D81E00C947F0D80E048
:101B40000C947F0D6FEF7FEF80E090E00C941520F8
:101B500080E090E00E94F11F9C0181E0293E3E4F11
:101B600009F080E0089582E090E00C94E91F83E0A2
:101B700090E00C94E91FCF9384E090E00E94E91F6D
:101B8000C82F82E290E00E94E91F2C2F382FC90154
:101B9000CF910895CF93C92F682F84E090E00E94E1
:101BA000F71F6C2F82E290E0CF910C94F71FAB01EE
:101BB000BC018FE090E00C940920AB01BC0183E1F3
:101BC00090E00C94092080E090E0BC010C94DD0DC5
:101BD00080E090E0BC010E94D70D0C94E30D69EE0B
:101BE0007EEF80E090E00E94152060E082E090E0CF
:101BF0000E94F71F60E083E090E00E94F71F1092C0
:101C0000500110925101109252011092530160E064
:101C100084E090E00E94F71F60E082E290E00E9482
:101C2000F71F60E085E090E00E94F71F60E086E02B
:101C300090E00E94F71F6FEF87E090E00E94F71F8F
:101C400060E070E0AB0188E090E00E94092060E075
:101C50008DE090E00E94F71F60E070E0AB0188E14A
:101C600090E00E94092060E087E190E00E94F71F69
:101C700060E070E0AB018CE190E00E94092060E040
:101C800070E080E290E00E94152060E070E0AB011F
:101C900088E190E00E9409200C94E80D0C94EF0D6F
:101CA000682F8EE090E00C94F71F0E94AD186093AF
:101CB000B1017093B2018093B3019093B40160932A
:101CC000AD017093AE018093AF019093B001089580
:101CD00085B7806885BF85B7806885BF08950895FA
:101CE00008950C94700E08950C94730E0E94680E63
:101CF00089E491E10E9462170E946F0E0C94710EAC
:101D000081E008950C94800E089508950E94840E39
:101D10000C94850E0E9463110C949E020E949818E8
:101D20000E9447120E948A0E0C94740E5F926F926A
:101D30007F928F929F92AF92BF92CF92DF92EF925B
:101D4000FF920F931F93CF93DF9300D000D00F9299
:101D5000CDB7DEB70E945A12782E81110E94550E1F
:101D600035EA832E31E0932E00E010E0502E802FD4
:101D70000E948D116C01F401A080B180A816B906F3
:101D800009F454C0A826BD248091B50181FD0E94AC
:101D90009611612C21E0E22EF12CC5018E219F21AC
:101DA000892BE9F10E94820E8030A9F069825A8263
:101DB000CE20DF2081E0CD2809F480E08B830E94D3
:101DC000A1188160782F8C839D8349815A816B8112
:101DD000892F0E94B902000F111FF801EB55FE4F29
:101DE000808191818E259F258083918381E0711070
:101DF00001C080E00F900F900F900F900F90DF9137
:101E0000CF911F910F91FF90EF90DF90CF90BF90F7
:101E1000AF909F908F907F906F905F9008956394A4
:101E2000EE0CFF1C862D8C3009F0B7CF82E0880EB7
:101E3000911C0F5F1F4F0430110509F097CF8FEFF2
:101E400089838A831B820E94A1188160782F8C83EA
:101E50009D8349815A816B81892F0E94B902C6CF27
:101E60000E94960E0E9448140C94AE02CF93DF930A
:101E70000E946D10EC01D23508F053C0D13508F046
:101E8000EFC0C83ED105F8F4C03ED10578F4C83A99
:101E9000D10580F4C53AD10508F081C0C130D10523
:101EA00029F0CE010497813A904050F4CE01DF91A1
:101EB000CF910895CE01885A9040479708F47AC090
:101EC000C0E0D0E0F3CFD03578F4D03408F0C5C00E
:101ED000D11105C0CD3ED10598F3D065E7CFCE0135
:101EE000915080309F41E1CF9E01207F2860369540
:101EF0002795E8F723708C2F86958695837030E2BE
:101F0000839FC0011124922BC37021E030E002C0F6
:101F1000220F331FCA95E2F7E901C82BD92BDC68E1
:101F2000C5CFD63508F5D53508F0ACC0D435C0F4EA
:101F30008C2F86958695AE01437020E2D33508F04C
:101F400093C0829FC001112421E030E002C0220F23
:101F5000331F4A95E2F7822B932B9C68EC01A6CFA6
:101F6000DC2FC4EFD06AA2CFDA3558F4D93508F0A7
:101F700092C09D2F985509F0A3CFDC2FC0EFD06AF7
:101F800095CFCE019056903208F09ACF8D2F8F7159
:101F90000E940611982F9F718C2F9062DFCFC63A56
:101FA00029F0C73A29F0C1E8D0E480CFC2E8FCCFDD
:101FB000C3E8FACFC85AC73108F049C0EC2FF0E0A7
:101FC000E15BFF4D0C94C21FC2EED0E0D4646ECF33
:101FD000CAEED0E0FBCFC5EBD0E0F8CFC6EBD0E047
:101FE000F5CFC3EBD0E0F2CFC4EBD0E0EFCFC7EB3F
:101FF000D0E0ECCFCCECD0E0E9CFCDECD0E0E6CF38
:10200000C3E8D1E0E3CFCAE8D1E0E0CFC2E9D1E054
:10201000DDCFC4E9D1E0DACFC1E2D2E0D7CFC3E26D
:10202000D2E0D4CFC4E2D2E0D1CFC5E2D2E0CECF6D
:10203000C6E2D2E0CBCFC7E2D2E0C8CFCFE6D0E055
:10204000C5CFC0E7D0E0C2CFCAE2D2E0BFCFC0E088
:10205000D0E0BCCFC9EED0E0B9CFDF70D06A26CFD8
:10206000DC2FC1EFD06A22CF829FC001112421E072
:1020700030E002C0220F331F4A95E2F7822B932BE8
:102080009A686CCF8C2F0E940611982F80E09F7168
:10209000EC01D0620BCF8C2F8F700E9406112C2F79
:1020A00022952F70922F906959CF972F70E02CE0D6
:1020B000929F600D711D112490E3899F600D711D29
:1020C0001124FB01EE0FFF1FE455FF4F8591959101
:1020D00008950E9455100C94360F803E9105A9F189
:1020E000C8F48133910509F47AC048F48932910526
:1020F00009F46EC08A32910509F478C008958933D5
:102100009105E1F082389105C9F08533910509F414
:1021100058C00895843E9105A9F148F4823E910586
:1021200009F1833E910519F181EE90E00895863E14
:10213000910599F1873E9105C9F108952091DF013C
:102140002370A1F080EE90E008952091DF0120FD42
:1021500054C03091E00130FF09C024FD24C083EE5B
:1021600090E008952091DF0122FDF7CF089520919E
:10217000DF0122FD45C03091E00130FDE3CF24FFB7
:10218000F5CF11C02091E00121FFF0CF8091DF0158
:1021900084FD09C087EE90E008952091DF0123FFC0
:1021A000E5CF24FFF7CF80E090E008952091DF0194
:1021B00023FD29C03091E00131FFE1CF84EE90E0B2
:1021C00008952091DF0125FFD1CF89E290E00895A5
:1021D0002091DF0125FFCACF85E390E0089520918B
:1021E000DF0126FFC3CF8AE290E008952091DF014E
:1021F00026FFBCCF81E390E0089589E390E0089545
:1022000082EE90E0089586EE90E008959091DF01CF
:1022100092FF06C0282F28712830F9F4877F846048
:1022200093FF06C0282F28712831F1F4877E84613E
:102230002091E00120FF06C0382F38713830D9F4E2
:10224000877F816021FF06C0282F28712831D1F4B3
:10225000877E816194FD877E0895282F2471243024
:10226000F9F68B7F8860DCCF282F2471243101F7A9
:102270008B7E8861DDCF382F3171313019F78E7F39
:102280008860E0CF282F2171213121F78E7E88616F
:10229000E1CF80E008950C94A20D0E945A128FE3C2
:1022A0009CE90197F1F700C000000E945A1280E0FB
:1022B0000E948D1180FF04C00E944B110C94ED18F8
:1022C00008950C944D110E94A80D811102C00E9426
:1022D0004E0E0E94B30D8093B5010E94BB0D8093FA
:1022E000DF019093E0010E9461110E94B70D682FF9
:1022F00070E080E090E00E948E0760914C01709148
:102300004D0180914E0190914F010C94BC070895AE
:102310000C94871108950C948A11E82FF0E0EE0FC9
:10232000FF1FE751FE4F808191810895089580EA53
:102330008A95F1F7089500C008950C949711F894C8
:10234000E82FE295EF70AE2FAF5DB0E04C918F704B
:1023500021E001C0220F8A95EAF7922F90959423ED
:102360009C93EE5DF0E09081822F892B808378949E
:102370000895CF93DF93C5E2D1E089918F3F11F0AB
:102380000E949F1181E0C932D807B9F7C9E1D1E0B5
:1023900089918F3F11F00E949F1181E0C532D807CB
:1023A000B9F7DF91CF910895AF92BF92DF92EF928C
:1023B000FF920F931F93CF93DF935C01D62EC62F0E
:1023C000D0E08E010B5D1E4FF80180818F3F09F434
:1023D00052C0F894E82FE295EF70AE2FAF5DB0E0F9
:1023E0009C918F7021E001C0220F8A95EAF7892F16
:1023F000822B8C93EE5DF0E0808120952823208352
:1024000078940E949B11E9E1F1E021E030E0E12CB9
:10241000F12C41914F3F79F0A42FA295AF70A05EAF
:10242000B0E08C9190E04F7002C0959587954A95E9
:10243000E2F780FF2AC080E090E0E82AF92A220F24
:10244000331F81E0E532F80721F7F80180818F3FE3
:1024500011F00E949F1161E0E114FE0409F460E0B4
:102460008D2D0E949D11CC0FDD1FC5018C0F9D1F6E
:10247000EC01E882F982DF91CF911F910F91FF90DB
:10248000EF90DF90BF90AF900895C901D6CF0E9422
:10249000B911E9EEF1E088E011928A95E9F7E1EEF1
:1024A000F1E088E011928A95E9F784E00E94A81291
:1024B0000C942902FF920F931F93CF93DF93CDB714
:1024C000DEB728970FB6F894DEBF0FBECDBFFE0172
:1024D0003196DF0188E01D928A95E9F710E00E2F12
:1024E000FF2E612F802F9F2D0E94D411812F8F5F8F
:1024F000182F8430B1F748E050E0602F7F2D81EE37
:1025000091E00E94DC1F11E0892BC1F410E0212F23
:1025100044E069EE71E081EE91E00E94A9120E9410
:102520002B02812F28960FB6F894DEBF0FBECDBFC9
:10253000DF91CF911F910F91FF90089588E0E02FD8
:10254000FF2DA1EEB1E001900D928A95E1F7DFCF6A
:102550000895FF920F931F93CF93DF93D82F192FD6
:10256000062FF72EC42F203049F081E08093B80168
:102570000E94A1188093B6019093B7018091B80191
:10258000803099F08091B6019091B7010E94B918FE
:10259000059758F0ED2FF12FA02FBF2D80E090E090
:1025A0008C17910544F01092B801DF91CF911F91E3
:1025B0000F91FF900895219131912D933D930196B4
:1025C000EFCF0E948B1A0E948E0E0C94971A0E94D5
:1025D0009B1A0E94300F0C94B51A0E9441180E9459
:1025E000721A0E94760E0E94E1120E94E7120E9467
:1025F000860EFBCF8091BF0180FF0DC06091090165
:1026000070E0660F771F6038710588F560307607D7
:1026100081F1862F089581FF07C06091090184E050
:10262000689FB0011124EFCF82FF04C060910901BF
:1026300088E0F6CF9091BE019030B9F0609108012A
:1026400080910901961728F098E0899FB001112424
:10265000DACF899FC00111249F719062880F991F62
:10266000E8F770E00E94AE1FCECF68E0D2CF8FE7D0
:10267000089581E008958091BF0180FF0CC06091B2
:10268000050170E0759567957595679560307607DB
:1026900041F1862F089581FF06C06091050170E029
:1026A00075956795F3CF6091050182FD0BC0909100
:1026B000BD019030A1F06091040180910501961751
:1026C00038F0682F70E06038710500F38FE70895E7
:1026D000899FC001112470E00E94AE1FF4CF61E019
:1026E000D8CF81E00895E82FED5E8D3ED8F1F0E07F
:1026F000EA59FF4D0C94C21F0E94FA1281958093F3
:10270000C30108950E94FA12FACF0E94FA1281952D
:102710008093C20108950E94FA12FACF0E943B13DF
:102720008093C40108950E943B138195F9CF0E94C4
:102730003B1381958093C50108950E943B13FACF06
:10274000815F990B21E001C0220F8A95EAF7809101
:10275000C101822B8093C10108958091BF018160E6
:102760008093BF0108958091BF018260F9CF80916D
:10277000BF018460F5CF4091C2018D3E59F4809134
:10278000C30187FF0DC01092C301403059F410926D
:10279000BE0108C08E3E79F48091C30118169CF3E7
:1027A000403079F08091C4019091C501892B11F4DA
:1027B0001092BD0108958F3E41F447FFF1CF109272
:1027C000C2018091C3018030E1CF803F19F414161B
:1027D000B4F3E6CF9091C401893F29F4191604F7A8
:1027E0001092C401DDCF8A3F19F497FFD9CFF8CFFB
:1027F0009091C5018B3F29F497FFD2CF1092C5016C
:10280000CFCF8C3F19F41916CCF3CACF982F915F14
:10281000983078F4815F990B21E001C0220F8A95EE
:10282000EAF7822F80959091C10189238093C1019D
:10283000B7CF8D3F31F48091BF018E7F8093BF0170
:10284000AFCF8E3F21F48091BF018D7FF7CF08F489
:10285000A7CF8091BF018B7FF1CF0E94A1189C016F
:102860009091C2018091C301982B21F02093BB016C
:102870003093BC019091C4018091C501982B21F047
:102880002093B9013093BA0180EC91E00C94831746
:10289000CF92DF92EF92FF920F931F93CF93DF932C
:1028A00000D000D000D0CDB7DEB726E0E0ECF1E0FC
:1028B000CE010196DC0101900D922A95E1F7E0909E
:1028C000C201F090C3010091C4011091C5011092A2
:1028D000C2011092C3011092C4011092C5012F2DA4
:1028E0002E29D82EC92E203091F08091BB019091D5
:1028F000BC010E94B918AC019091BE01903009F45E
:1029000041C080910A018417150608F449C0812F3F
:10291000802B91F08091B9019091BA010E94B91871
:10292000AC019091BD01903009F477C0809106010F
:102930008417150608F47FC08091C2019091C301ED
:10294000892B9091C401892B9091C501892B11F09D
:102950000E942D1486E0ED2DFC2DA0ECB1E001903D
:102960000D928A95E1F70F900F900F900F900F90B6
:102970000F90DF91CF911F910F91FF90EF90DF901B
:10298000CF90089520910B018AE0289F9001112497
:102990002417350708F0BBCF9F5F9093BE0102C09C
:1029A0009F3FD1F7E11459F00E94FA1291E01E14F2
:1029B0000CF09FEF899F802D11248093C201F114A8
:1029C00059F00E94FA1291E01F140CF09FEF899FBA
:1029D000802D11248093C3013091C201303009F45D
:1029E00096CF2091C301203009F491CF45EB3403F9
:1029F000C0011124892F911101C081E08093C2018F
:102A000035EB2303C0011124903019F09093C301DA
:102A10007ECF81E08093C3017ACF209107018AE0C5
:102A2000289F900111242417350708F085CF9F5F58
:102A30009093BD0102C09F3FD1F7003059F00E9432
:102A40003B1391E010160CF09FEF899F802D11240D
:102A50008093C401103059F00E943B1391E011168D
:102A60000CF09FEF899F802D11248093C501309138
:102A7000C401303009F460CF2091C501203009F441
:102A80005BCF45EB3403C0011124892F911101C0A4
:102A900081E08093C40135EB2303C0011124903001
:102AA00019F09093C50148CF81E08093C50144CFD0
:102AB000E0ECF1E086E011928A95E9F71092BE0110
:102AC0001092BD011092BF010895CF93DF93EC01E6
:102AD000FB018281803009F4E5C0C2369DE5D9074B
:102AE00049F070F5C6319CE5D90708F5C2309CE580
:102AF000D90718F10E94BB0D8093DF019093E0018C
:102B0000C6318CE5D807C0F5C2308CE5D80739F559
:102B10008091DF0181608093DF018091DF019091DE
:102B2000E0010E94CA0D0E942F0780E006C09E01AE
:102B30002B5F3C4529303040E8F2DF91CF9108957A
:102B4000C63A9DE5D907C9F7D5CFFE01EC5FFC4534
:102B5000E830F10550F5E758FF4D0C94C21FFE0117
:102B6000E450FC458091DF018260E231F10598F686
:102B7000EF57FF4D0C94C21FC4308DE5D80728F3E2
:102B80008091DF01C236DD4509F087C0982F9F7E16
:102B900084FF90619093DF01C0CF8091DF0184605A
:102BA000BACF8091DF018860B6CF8091E00181606B
:102BB0008093E001B2CF8091E0018260F9CF8091F3
:102BC000DF018061A8CF8091DF018062A4CF809176
:102BD000DF018064A0CF0E942F078091DF01806811
:102BE0009ACF8091DF018C6096CF8091E001836065
:102BF000DFCF8091DF018E7F8ECF8091DF018D7FCF
:102C00008ACF8091DF018B7F86CF8091DF01877F24
:102C100082CF8091E0018E7FCBCF8091E0018D7FCC
:102C2000C7CF8091DF018F7E76CF8091DF018F7DCE
:102C300072CF8091DF018F7B6ECF0E942F07809132
:102C4000DF018F7768CF8091DF01837F64CF809130
:102C5000E0018C7FADCF9091DF01892F8B7F92FFB8
:102C60008460877F92FF886056CF8091E001982F23
:102C7000909590FB80F990FB81F99ACF0E942F07E5
:102C80009091DF01892F97FB87F9805844CF81E02D
:102C90000E94500E42CF80E0FBCF982F9E7F80FF96
:102CA000916078CF81E049CFCF93DF93EB018631FC
:102CB0009C4519F50E948A0C9A819030A1F08A7A7D
:102CC00091E0811101C090E09093C601803049F0FD
:102CD00085E30E943E0C0E94F10C80E0DF91CF91D1
:102CE000089589E2F6CF8091C601803021F085E316
:102CF0000E94450CF0CF89E2FBCF81E0EFCFAF928D
:102D0000BF92CF92DF92EF92FF920F931F93CF93D8
:102D1000DF937C015B01C42FD22FFC0182818030C4
:102D200001F14093C9010E94A1188093C7019093BB
:102D3000C8018C2F805E883008F04DC081E0C1FD55
:102D400084E0C0FD880FC2FD8295DF91CF911F9175
:102D50000F91FF90EF90DF90CF90BF90AF900C94C9
:102D600065041091C901141341C08091C70190916D
:102D7000C8010E94B9186C01B701C5010E944D0934
:102D8000C816D90698F5CD2FC05E1D17C1F0812F4A
:102D9000805E883048F481E011FD84E010FD880FEA
:102DA00012FD82950E946C04C83048F481E0D1FD88
:102DB00084E0D0FD880FD2FD82950E946504802FAB
:102DC0000E945D0481E0D1FD84E0D0FD880FD2FD3A
:102DD0008295C830B0F0DF91CF911F910F91FF9095
:102DE000EF90DF90CF90BF90AF9008958C2F805ED2
:102DF000883088F781E0C1FD84E0C0FD880FC2FD06
:102E00008295DF91CF911F910F91FF90EF90DF900E
:102E1000CF90BF90AF900C946C040F939C01CB01AA
:102E2000243F4CE53407A1F190F4293D4CE53407EB
:102E300049F12A3D4CE53407E9F1283D3C45C1F014
:102E4000FC0182818030E1F11092C90119C0263F56
:102E50004CE5340719F1273F4CE5340729F1253FAC
:102E60003C4571F707E225EE44EE65EF7CE505C0D1
:102E700006E221EE41EE68ED7CE50E947F1680E0DF
:102E80000F91089507E225EE45EE69ED7CE5F5CF5B
:102E900006E221EE40EE64EF7CE5EFCF06E221EEA4
:102EA00042EE66EF7CE5E9CF07E225EE46EE67EFFE
:102EB0007CE5E3CF08E221E045EE6AED7CE5DDCF7D
:102EC00081E0DECF80932A0190932B0108958093B7
:102ED000CE019093CF010895E091CE01F091CF0102
:102EE000309721F00190F081E02D099480E0089561
:102EF000E091CE01F091CF01309721F00280F38173
:102F0000E02D09940895E091CE01F091CF01309722
:102F100039F022E0DC012C930480F581E02D099446
:102F200008952091CC013091CD012817390771F017
:102F30008093CC019093CD01E091CE01F091CF012F
:102F4000309721F00680F781E02D099408952091B3
:102F5000CA013091CB012817390771F08093CA015B
:102F60009093CB01E091CE01F091CF01309721F009
:102F70000084F185E02D09940895AC014E5F5F4F08
:102F800008969C0180E0FA0190814F5F5F4F91119C
:102F90008F5F42175307B9F70895611102C080E0AF
:102FA0000895FC01329608962081261729F0319663
:102FB000E817F907C9F7F3CF81E008959C01FC01F8
:102FC000329680E09FEF4081461759F031969F3F3F
:102FD00019F4411101C0982F8F5F8630A1F79F3FF0
:102FE00009F40895290F311DF90162830895FC0148
:102FF000329608962191261302C0DF011E92E8172F
:10300000F907C1F708950C94DE170C94F717029690
:10301000FC0186E011928A95E9F7089508950C94D1
:103020000E188F5F8093D0010C940F1883E080936B
:10303000D0010C940F180C94111881E08093D001EA
:103040000C940F180C941D18089508950C942518CD
:10305000089508950C942418CF930E9428180E9474
:103060005A120E942918C0E08C2F0E948D11892BC2
:1030700031F4CF5FC430C1F780E0CF91089581E093
:10308000FCCF08951F921FB61F9211248F939F9318
:10309000AF93BF938091D101811113C08091F10151
:1030A0009091F201A091F301B091F4014196A11D1C
:1030B000B11D8093F1019093F201A093F301B093BD
:1030C000F401BF91AF919F918F911F901FBE1F90F0
:1030D00018958091F901843031F10E948F0210928D
:1030E000D10188E190E020E40FB6F894A895809390
:1030F00060000FBE2093600083B7817F846083BF30
:1031000083B7816083BF7894889583B78E7F83BFB0
:103110000FB6F894A8958091600088618093600054
:10312000109260000FBE08950E942F070C94930226
:1031300082E084BD93E095BD9AEF97BD80936E00C9
:1031400008952FB7F8948091F1019091F201A09128
:10315000F301B091F4012FBF08952FB7F894609157
:10316000F1017091F2018091F3019091F4012FBF70
:1031700008952FB7F8944091F1015091F2016091B8
:10318000F3017091F4012FBF9A01281B390BC9017B
:10319000089578941F921FB61F9211248F939F93C6
:1031A000AF93BF938091F1019091F201A091F3014F
:1031B000B091F4010196A11DB11D8093F10190938E
:1031C000F201A093F301B093F401BF91AF919F91ED
:1031D0008F911F901FBE1F90189587E797E78093E8
:1031E00000089093010888E19AE00FB6F894A8953A
:1031F000809360000FBE90936000FFCF8091DD014F
:10320000089508959C0182E08093E9009FEF8091EA
:10321000E80085FD06C085ED8A95F1F70000915024
:10322000B1F78091E80085FF0CC040E050E066E017
:1032300070E0C9010E94231B8091E8008E77809383
:10324000E8000895CF93DF93EC0181E08093E900DB
:103250008FEF9091E80095FD06C095ED9A95F1F7F6
:1032600000008150B1F78091E80085FD03C0DF9137
:10327000CF91089540E050E068E070E0CE010E94F8
:10328000231B8091E8008E778093E80088E0FE01A0
:10329000A5EDB1E001900D928A95E1F7E8CF80931A
:1032A000D2016093D3017093D4018091F9018430ED
:1032B000F9F482E08093E9008FEF9091E80095FDAA
:1032C00006C095ED9A95F1F700008150B1F7809115
:1032D000E80085FF0DC040E050E063E070E082ED63
:1032E00091E00E94231B8091E8008E778093E80094
:1032F0000895BC0184E00C944F19BC0183E00C9448
:103300004F198091F801811109C00E94B21C0E94DE
:10331000131D8091E20084608093E2000895109272
:10332000F80108950C941D186091F50181E0611178
:1033300001C080E00C9416189091F90181E094305E
:1033400009F080E06091F5010C941B1842E061ECFB
:1033500081E00E942C1C42E261EC82E00E942C1C65
:103360009091F90181E0943009F080E06091F501DD
:103370000C9411188091FB01893089F148F4823056
:1033800009F49FC0833009F45AC0813041F0089598
:103390008A3009F486C08B3009F46CC0089580919E
:1033A000FA01813A09F04AC08091E800877F809352
:1033B000E8008091FE019091FF01892B61F060E0AF
:1033C00080E090E070E00E94711B8091E8008B77B4
:1033D0008093E800089568E085ED91E0F3CF809157
:1033E000FA01813259F58091FE019091FF01029717
:1033F00028F58091E800877F8093E8008091E800BD
:1034000082FF18C02091F3008091F200922F029762
:1034100031F48091F100813011F0863021F48091F7
:10342000F1008093DD018091E8008B778093E800C4
:103430000C94601C8091F9018111E0CF0895809176
:10344000FA01813AD9F78091FE019091FF01892B11
:10345000A9F78091E800877F8093E8008091E800D9
:1034600080FFFCCF809118018093F1008091E800EB
:103470008E77DCCF8091FA01813201F78091FE01D5
:103480009091FF01892BD1F68091E800877F80938E
:10349000E8000E94601C8091FC01809318010C944C
:1034A0002F078091FA01813249F68091E800877FE9
:1034B0008093E8000E94601C8091FD018093DE01F2
:1034C00008958091FA01813A09F0B8CF8091E8001F
:1034D000877F8093E8008091E80080FFFCCF809197
:1034E000DE01C2CF84B7877F84BF0FB6F894A8955A
:1034F00080916000886180936000109260000FBE30
:1035000080E890E00FB6F89480936100909361009A
:103510000FBE0C9422180E94B21C0E94131D8091B1
:10352000E20084608093E20078940C94941F8CE015
:1035300091E00C9467178091F9018530A9F480918E
:10354000F901853011F00C9494180E94691880914B
:10355000F7018030A1F30E942C18803081F30E9483
:103560000D1B0E942F07EBCF089508950C94B81AF5
:10357000292F30E023303105C9F070F421303105B6
:10358000E9F12230310571F48BE390E028E632E076
:10359000FA0120833183089521323105E9F0223286
:1035A000310519F180E090E020E0F2CF282F30E0E3
:1035B000813061F02230310561F02030320791F71F
:1035C000E4E6F2E0849190E09F01E2CFE8E5F2E0EA
:1035D000F9CFECE2F2E0F6CF61307040A0F011F7E5
:1035E00089E090E023E932E0D3CF6130704080F091
:1035F000C9F68BE790E025EB32E0CACF82E190E09C
:1036000023EA32E0C5CF89E090E02AE732E0C0CF7C
:1036100080E490E020E333E0BBCF80E189BD82E12C
:1036200089BD09B400FEFDCF8091D8008F7D8093C5
:10363000D8008091E00082608093E0008091E000FB
:1036400081FDFCCF0895BF92CF92DF92EF92FF925F
:103650000F931F93CF93DF937C01EB018A010E94AC
:103660007F1CB82E803059F08B2DDF91CF911F91A8
:103670000F91FF90EF90DF90CF90BF9008950030B2
:10368000100739F0F80180819181C81BD90BE80E31
:10369000F91EC12CD12C22C00E947F1C8111E5CFC4
:1036A0008091E80085FD11C08091E8008E778093BD
:1036B000E8000030100781F3F801808191818C0DC2
:1036C0009D1D8083918385E0D0CFF70181917F019B
:1036D0008093F10021978FEFC81AD80A209701F73D
:1036E000C3CFFC0120910002309101022617370759
:1036F00048F06030760729F49091E8009E77909327
:10370000E8009B0190E027C08091F9018030D1F161
:103710008530E1F18091E80083FD3EC08091E800B2
:1037200082FD1EC08091E80080FF15C08091F300EB
:103730004091F200582F2030320719F048305105DF
:10374000A8F091E04830504009F090E04091E80046
:103750004E774093E80020303207B1F69111D4CF74
:103760008091E80082FF0AC080E0089581918093F3
:10377000F100215030404F5F5F4FDDCF8091F90164
:10378000811102C082E00895853011F483E008952C
:103790008091E80083FFE4CF81E00895FC0120914F
:1037A0000002309101022617370748F06030760793
:1037B00029F48091E8008E778093E8009B0190E0E7
:1037C00027C08091F9018030D9F18530E9F18091ED
:1037D000E80083FD3FC08091E80082FD1EC080911B
:1037E000E80080FF15C08091F3004091F200582F4F
:1037F0002030320719F048305105A8F091E04830E8
:10380000504009F090E08091E8008E778093E800C6
:1038100020303207B1F69111D4CF8091E80082FFB9
:103820000BC080E0089584918093F100319621507F
:1038300030404F5F5F4FDCCF8091F901811102C0B2
:1038400082E00895853011F483E008958091E800C6
:1038500083FFE3CF81E00895982F973028F08F7091
:103860008093E90081E008959093E900242F762F5A
:1038700050E0981731F07091EC002091ED005091DC
:10388000F00021FD02C09F5FE8CF3091EB003E7F4A
:103890003093EB003091ED003D7F3093ED0030919F
:1038A000EB0031603093EB007093EC002093ED005F
:1038B0005093F0002091EE0027FDE5CF80E00895C1
:1038C0008091FA0187FF13C08091E80082FF06C053
:1038D0008091E8008B778093E80008958091F9014A
:1038E0008111F2CF08958091F9018030D9F3809150
:1038F000E80080FFF8CF8091E8008E77ECCF409110
:10390000E4005091E50094E62091EC00822F817054
:1039100020FF06C08091E80080FF06C080E0089587
:103920002091E80022FD1DC08091F901803091F0C6
:10393000853091F08091EB0085FD10C02091E4006E
:103940003091E5004217530719F0903049F091503B
:10395000A901DACF82E0089583E0089581E0089517
:1039600084E008950E94241D0E942C1D8091E00097
:1039700081608093E0008091D8008F778093D80099
:1039800019BC8091D7008E7F8093D7008091D8009A
:103990008F7E8093D8001092F80108950E94241D14
:1039A0000E942C1D8091D8008F778093D800809141
:1039B000D80080688093D8008091D8008F7D809354
:1039C000D80019BC1092F9011092F5011092F7017C
:1039D0001092F6018091E0008B7F8093E00080914F
:1039E000D80081608093D80042E060E080E00E94CF
:1039F0002C1C8091E1008E7F8093E1008091E20099
:103A000081608093E2008091E20088608093E20010
:103A10008091E0008E7F8093E0008091D8008061EB
:103A20008093D80008958091D8008F7E8093D8002D
:103A30008091D70081608093D70084E082BF81E0CD
:103A40008093F8010C94CE1C8091D8008E7F8093D7
:103A5000D8001092E20008951092DA001092E1006E
:103A600008951F920F920FB60F9211242F933F9338
:103A70004F935F936F937F938F939F93AF93BF9376
:103A8000EF93FF938091E10082FF0BC08091E200F1
:103A900082FF07C08091E1008B7F8093E1000E944C
:103AA000931F8091DA0080FF19C08091D80080FFB9
:103AB00015C08091DA008E7F8093DA008091D90062
:103AC00080FF94C080E189BD82E189BD09B400FE18
:103AD000FDCF81E08093F9010E9481198091E1007E
:103AE00080FF19C08091E20080FF15C08091E20044
:103AF0008E7F8093E2008091E20080618093E200FB
:103B00008091D80080628093D80019BC85E08093B2
:103B1000F9010E9494198091E10084FF29C08091ED
:103B2000E20084FF25C080E189BD82E189BD09B43E
:103B300000FEFDCF8091D8008F7D8093D8008091CA
:103B4000E1008F7E8093E1008091E2008F7E809380
:103B5000E2008091E20081608093E2008091F501B3
:103B6000803009F449C084E08093F9010E949C19D7
:103B70008091E10083FF29C08091E20083FF25C08E
:103B80008091E100877F8093E10082E08093F901DA
:103B90001092F5018091E1008E7F8093E100809189
:103BA000E2008E7F8093E2008091E200806180934A
:103BB000E20042E060E080E00E942C1C8091F00076
:103BC00088608093F0000E949219FF91EF91BF915D
:103BD000AF919F918F917F916F915F914F913F91A5
:103BE0002F910F900FBE0F901F90189519BC109237
:103BF000F9010E948F1972CF8091E30087FF02C004
:103C000083E0B2CF81E0B0CF1F920F920FB60F9238
:103C100011242F933F934F935F936F937F938F93D1
:103C20009F93AF93BF93CF93EF93FF938091E9005E
:103C3000C091EC008F70C0FBCC27C7F9C82B109245
:103C4000E9008091F000877F8093F00078940E94D3
:103C5000451E1092E9008091F00088608093F0008A
:103C6000CF70C093E900FF91EF91CF91BF91AF91D9
:103C70009F918F917F916F915F914F913F912F9184
:103C80000F900FBE0F901F9018951F93CF93DF9347
:103C9000CDB7DEB7AA970FB6F894DEBF0FBECDBF83
:103CA0008AEF91E0FC0101962091F100208322E04F
:103CB00082309207B9F70E94BA198091E80083FF19
:103CC00038C08091FA019091FB019A3090F5E92F6C
:103CD000F0E0ED56FF4D0C94C21F803889F0823819
:103CE00041F58091FE018F70873018F58093E900CF
:103CF0008091EB0085FB882780F91092E90006C0CF
:103D00008091F701880F9091F601892B9091E8003E
:103D1000977F9093E8008093F1001092F1008091DA
:103D2000E8008E7729C081111CC08091FC01813090
:103D300041F18091E80083FF0AC08091E800877F0D
:103D40008093E8008091EB0080628093EB00AA965C
:103D50000FB6F894DEBF0FBECDBFDF91CF911F919C
:103D60000895823031F78091FC01803081F010920B
:103D7000E9008091E800877F8093E8000E94601C42
:103D8000D8CF933009F080E08093F701F0CF809195
:103D9000FE018F70282F2150263058F68093E900BD
:103DA0002091EB0020FFE3CF933031F48091EB00C2
:103DB00080628093EB00DBCF9091EB009061909359
:103DC000EB0091E001C0990F8A95EAF79093EA0021
:103DD0001092EA008091EB008860EBCF8111A9CFAF
:103DE0008091FC018F77182F8091E3008078812BE0
:103DF0008093E3008091E800877F8093E8000E9431
:103E0000601C8091E80080FFFCCF8091E300806817
:103E10008093E30083E0111101C082E08093F901F7
:103E200088CF8058823008F084CF8091FC01909137
:103E3000FD018C3D23E0920791F583E08A838AE2BD
:103E400089834FB7F894DE01139620E03EE051E2FB
:103E5000E32FF0E050935700849120FF03C0829538
:103E60008F703F5F8F708A30C0F0895C8D931D9298
:103E70002F5F243169F74FBF8091E800877F8093DF
:103E8000E8006AE270E0CE0101960E94711B809109
:103E9000E8008B778093E8004CCF805DE7CF60919E
:103EA000FE017091FF01AE014F5F5F4F0E94B61A95
:103EB000BC01892B09F43DCF9091E800977F909346
:103EC000E80089819A810E94CE1BE1CF803809F0F9
:103ED00030CF8091E800877F8093E8008091F501E2
:103EE0008093F1001CCF811124CF9091FC0192307E
:103EF00008F01FCF8091E800877F8093E8009093BF
:103F0000F5010E94601C8091F501803031F084E061
:103F10008093F9010E94A6190CCF8091E30087FDE0
:103F2000F6CF81E0F5CF0895CF938091F9018030ED
:103F300099F08091E900C091EC008F70C0FBCC2714
:103F4000C7F9C82B1092E9008091E80083FD0E9418
:103F5000451ECF70C093E900CF91089597FB072EBF
:103F600016F4009407D077FD09D00E94C81F07FC03
:103F700005D03EF4909581959F4F08957095619579
:103F80007F4F0895EE0FFF1F0590F491E02D0994E7
:103F9000AA1BBB1B51E107C0AA1FBB1FA617B7076F
:103FA00010F0A61BB70B881F991F5A95A9F780958B
:103FB0009095BC01CD010895FB01DC0104C08D91F9
:103FC0000190801921F441505040C8F7881B990B8B
:103FD0000895F999FECF92BD81BDF89A992780B5D1
:103FE0000895A8E1B0E042E050E00C941D20262F97
:103FF000F999FECF92BD81BDF89A019700B40216DF
:1040000039F01FBA20BD0FB6F894FA9AF99A0FBE8C
:1040100008950396272F0E94F81F0E94F71F252F4F
:104020000E94F81F242F0C94F81F0196272F0E943E
:10403000F81F0C94F71FDC01CB01FC01F999FECFAE
:1040400006C0F2BDE1BDF89A319600B40D92415020
:104050005040B8F70895F894FFCFE203A103A603F8
:10406000A903B203B803BB03B503BE03C103C40372
:10407000C703CA03CD03D003D303D603DF03AC03C6
:10408000AF03D903DC03B104B104E104E104780512
:104090009405030503059F05360647064706E40F0A
:1040A0002A10E80FEB0FEE0FF70FFD0F0010FA0FBD
:1040B0000310061009100C100F1012101510181014
:1040C0001B102410F10FF40F1E1021107C1382130B
:1040D00085138B13A013A013A013A013A013A01378
:1040E000A013A0138E13931397139D13AD13B31343
:1040F000B713DB1509160D16F515271635164716D5
:104100004B16CD15D115DF15E315E715EB15F11598
:10411000F915FD15011605161116151619161D1699
:1041200023163E162B166D1E931E991E931E991E66
:0A413000EE1E111F991E661F731F7B
:10413A00B4009B01280850011E0A1401FE18221916
:10414A0002197D197919011901F6F7313332363519
:0A415A0034C69766949190F5F400C6
:00000001FF
